:020000040800F2
:1000000000180020950D0008690900087109000812
:1000100000000000000000000000000000000000E0
:100020000000000000000000000000007909000846
:100030000000000000000000830900088D0900088E
:10004000150E0008150E0008150E0008150E000804
:10005000150E0008150E0008150E0008150E0008F4
:10006000150E0008150E000899090008150E000865
:10007000150E0008BD090008150E0008150E000831
:10008000150E00080000000000000000150E00081A
:1000900000000000150E0008150E0008D509000824
:1000A00000000000150E0008150E0008050A0008E3
:1000B000150E000800000000150E0008150E0008BF
:1000C00010B5064C2378002B07D1054B002B02D02E
:1000D000044800E000BF0123237010BD6800002029
:1000E00000000000186A0008044B10B5002B03D074
:1000F0000349044800E000BF10BDC04600000000F6
:100100006C000020186A000803B4714649084000DA
:100110004900095E49008E4403BC70470022430831
:100120008B4274D303098B425FD3030A8B4244D3BF
:10013000030B8B4228D3030C8B420DD3FF22090201
:1001400012BA030C8B4202D31212090265D0030BC0
:100150008B4219D300E0090AC30B8B4201D3CB03B6
:10016000C01A5241830B8B4201D38B03C01A5241F8
:10017000430B8B4201D34B03C01A5241030B8B42FA
:1001800001D30B03C01A5241C30A8B4201D3CB02E5
:10019000C01A5241830A8B4201D38B02C01A5241CA
:1001A000430A8B4201D34B02C01A5241030A8B42CD
:1001B00001D30B02C01A5241CDD2C3098B4201D3E5
:1001C000CB01C01A524183098B4201D38B01C01A63
:1001D000524143098B4201D34B01C01A52410309DA
:1001E0008B4201D30B01C01A5241C3088B4201D389
:1001F000CB00C01A524183088B4201D38B00C01A36
:10020000524143088B4201D34B00C01A5241411A5C
:1002100000D20146524110467047FFE701B5002069
:1002200000F006F802BDC0460029F7D076E7704717
:100230007047C04680B582B000AF0C4B5A690B4B7B
:1002400001210A435A61094B5B69012213407B601B
:100250007B68002201210A2000F086FF0A2000F0BE
:1002600098FFC046BD4602B080BDC04600100240A7
:1002700080B584B000AF174B5A69164B8021C90373
:100280000A435A61134B5A698023DB031340FB6016
:10029000FB68104B5A690F4B802189020A435A614F
:1002A0000C4B5A6980239B021340BB60BB68094B0F
:1002B0005A69084B8021C9020A435A61054B5A69A1
:1002C0008023DB0213407B607B68C046BD4604B0E0
:1002D00080BDC0460010024080B500AF1B4B1C4AD9
:1002E0001A601A4B1B4A5A60184B00229A60174B2F
:1002F0000122DA60154B00221A61144B00225A6168
:10030000124B00229A61114B0022DA610F4B00223E
:100310001A620E4B180001F0E1FA031E01D000F042
:1003200073FA0A4B0021180003F01AF8031E01D0DB
:1003300000F06AFA054B0021180003F05DF8031E77
:1003400001D000F061FAC046BD4680BD84000020A7
:10035000005400400E09002090B58BB000AF7860CB
:1003600014243B19180014231A00002105F0B2FDD3
:100370007B681B68214A93423BD1214B5A69204B31
:10038000802189020A435A611D4B5A6980239B02CE
:1003900013403B613B693B19C022D2001A60210027
:1003A0007B1812225A607B1801229A607B18032264
:1003B000DA607B1804221A617A189023DB05110099
:1003C000180001F023F90E4BDA690D4B80218903E7
:1003D0000A43DA610A4BDA6980239B031340FB600E
:1003E000FB6800220021172000F0BEFE172000F05D
:1003F000D0FEC046BD460BB090BDC0460054004084
:100400000010024080B582B000AF7860054B391D06
:100410000548012204F0E0F87B681800BD4602B0F0
:1004200080BDC046FFFF00003003002090B585B0BE
:1004300000AF78607B681B683B4A93426FD13B4BAF
:10044000180005F051FC3A4B1B785A1CD1B2384ABF
:1004500011701900374B00229A56D3B20133DBB228
:1004600058B2344B1870344B595C344B9954324B5E
:100470005B781900304B1B781A00314B180005F0DF
:10048000CDFB2C4B1B785BB2013B2C4AD35C0A2B77
:1004900038D1284B1B785BB2023B284AD35C0D2B2A
:1004A0003DD1244B1B785BB21A00264B110018007B
:1004B00005F0B4FB0F23FB1800221A7010E00F2484
:1004C0003B1919783B191B781C4AD35C1A001E4B48
:1004D000180005F0A3FB3B191A783B1901321A707A
:1004E0000F23FB181B78134A127852B29342E6DBB3
:1004F000124BFF220021180005F0ECFC0D4B0022EE
:100500001A700CE00D49114BFF22180004F003F99A
:10051000094B00221A700E4B180005F0E5FBC0468F
:10052000BD4605B090BDC04600380140306A0008A5
:10053000DC020020DB020020D8010020DC010020CA
:10054000446A0008606A0008806A000830030020DE
:100550009C6A000880B582B000AF78600A00BB1CBE
:100560001A807A68084B9A420AD1084B01221A7005
:10057000074B1B681A68064B1B6804218A431A60E4
:10058000C046BD4602B080BD30030020DD02002021
:10059000B803002080B582B000AF00F03DFC031E20
:1005A0005ED1314B1B781A00304B1100180005F05A
:1005B00035FB2D4B1B781A002D4B1900002000F045
:1005C00065FC642000F024FD2A4B180005F08CFB2C
:1005D000254B1B781A00284B1900002000F02EFC38
:1005E000FB1D00221A7031E0FB1D1B78224AD25CF1
:1005F000FB1D1B781E49CB5C9A420DD0FB1D1B785E
:100600001B4AD35C1A001D4B1100180005F006FBB5
:100610001B4B180005F068FBFB1D1B78164AD35CCA
:100620001A00184B1100180005F0F8FAFB1D1B7892
:100630000F221340DBB20F2B03D1134B180005F030
:10064000EDFAFB1D1A78FB1D01321A70064B1B7860
:10065000FA1D12789A42C7D30C4B180005F044FBE0
:10066000C046BD4602B080BD28030020AC6A000829
:10067000DC010020C06A0008D8000020D46A00080D
:10068000FC6A0008306B0008546B0008586B0008C7
:1006900080B500AF00F08CFC00F04AF8642000F058
:1006A000B7FCFFF7E5FDFFF7C5FDFFF715FE00F00E
:1006B00097FA1A4B180005F017FB194B1B681A68BC
:1006C000174B1B6810210A431A601649144BFF226E
:1006D000180004F020F81349114BFF22180005F010
:1006E00070F9114B1B681A680F4B1B6804218A4371
:1006F0001A600E4B1B78002BFBD00C4B00221A709B
:10070000FFF748FF064B5A22002199520549044B36
:10071000FF22180003F0FFFFEBE7C046786B0008EC
:1007200030030020DC010020B8030020DD0200209F
:1007300090B599B000AF2C243B19180034231A004F
:10074000002105F0C7FB1C23FB18180010231A001A
:10075000002105F0BFFB3B1D180018231A000021E3
:1007600005F0B8FB21007B1802221A607B180122D9
:10077000DA607B1810221A617B1800225A627B18FB
:10078000180002F085FE031E01D000F03DF81C2188
:100790007B1807221A607B1800225A607B180022FF
:1007A0009A607B180022DA607B180021180003F0A1
:1007B000F5F9031E01D000F027F83B1D21221A6035
:1007C0003B1D00229A603B1D0022DA603B1D180091
:1007D00003F07AFB031E01D000F016F8C046BD46B8
:1007E00019B090BD80B582B000AF78607B681B689F
:1007F000044A934201D100F0EFFBC046BD4602B06F
:1008000080BDC046002C014080B500AF72B6C04626
:10081000C046FDE780B582B000AF0F4B9A690E4B22
:1008200001210A439A610C4B9B69012213407B60B2
:100830007B68094BDA69084B802149050A43DA6174
:10084000054BDA6980235B0513403B603B68C0467B
:10085000BD4602B080BDC04600100240B0B58CB0AD
:1008600000AF786000237B6200233B62384B9A69BB
:10087000374B802109010A439A61354B9A698023DD
:100880001B011340BB60BB680C23FA1810243B19F2
:100890001100180003F0EEFA3B19DB687B627B6AFB
:1008A000002B04D103F0D0FA0300FB6204E003F054
:1008B000CBFA03005B00FB62FB6A26491800FFF7D6
:1008C0002DFC0300013B3B62234B244A1A60224B60
:1008D000234ADA60204B3A6A5A601F4B00221A61A1
:1008E0001D4B00229A601C4B00229A612B257C191B
:1008F000194B180003F0D6FB030023707B191B78FB
:10090000002B1ED17C19144B180003F023FC0300AC
:1009100023707B191B78002B13D10D2000F039FCBC
:100920007B68032B09D87B68002219000D2000F09A
:100930001BFC0C4B7A681A6003E02B23FB18012286
:100940001A702B23FB181B781800BD460CB0B0BDE5
:100950000010024040420F00E0020020002C014045
:10096000E70300000400002080B500AFC046FDE7AB
:1009700080B500AFC046FDE780B500AFC046BD46BC
:1009800080BD80B500AFC046BD4680BD80B500AF1C
:10099000C046BD4680BD000080B500AF054B1800C5
:1009A00000F033FD044B180000F02FFDC046BD469B
:1009B00080BDC046FC030020B803002080B500AF16
:1009C000034B180003F012FCC046BD4680BDC04674
:1009D000E002002080B500AF094B1B689A69E02354
:1009E000DB00134004D0064B180001F095FB03E038
:1009F000034B180001F076FBC046BD4680BDC046E3
:100A00008400002080B582B000AF204B180003F0B6
:100A100069FF1E4B1B68DB6910221340102B30D17D
:100A20001A4B1B6830221A62184B180003F0CAFEDA
:100A3000164B58229B5A1A00154B1100180005F04E
:100A4000EDF8124B58229B5A1A00104B5B6F1B6833
:100A50005B68D31A7B607A680E4B1100180005F0B2
:100A6000DDF87B6899B2094B5A2299527B68DAB259
:100A7000094B1A707B689AB2044B11001800FFF7FB
:100A800069FDC046BD4602B080BDC04630030020AF
:100A90008C6B0008A86B00082803002080B586B086
:100AA00000AFF860B9607A6000237B610AE000E083
:100AB00000BF0100BB685A1CBA60CAB21A707B69D9
:100AC00001337B617A697B689A42F0DB7B681800AE
:100AD000BD4606B080BD80B586B000AFF860B96095
:100AE0007A6000237B6109E0BB685A1CBA601B78FE
:100AF0001800FFF787FC7B6901337B617A697B68AB
:100B00009A42F1DB7B681800BD4606B080BD80B517
:100B100082B000AF786001235B421800BD4602B08E
:100B200080BD80B582B000AF786039603B688022BC
:100B300092015A6000231800BD4602B080BD80B506
:100B400082B000AF786001231800BD4602B080BDBE
:100B500080B584B000AFF860B9607A6000231800F7
:100B6000BD4604B080BD000080B586B000AF78609F
:100B7000144A154BD31A7B617B693B61134B1B688D
:100B8000002B02D1114B124A1A60104B1A687B6875
:100B9000D3183A699A4207D205F0F2F903000C2201
:100BA0001A6001235B4209E0084B1B68FB60074B9E
:100BB0001A687B68D218054B1A60FB681800BD469E
:100BC00006B080BD00180020000400002C030020A7
:100BD0009005002080B500AFC046BD4680BD000036
:100BE00080B500AF144B154A1A60134BE122520234
:100BF0005A60114B00229A600F4B0022DA600E4BB4
:100C000000221A610C4B0C225A610B4B00229A6194
:100C1000094B0022DA61084B00221A62064B0022BF
:100C20005A62054B180003F083FC031E01D0FFF746
:100C3000EBFDC046BD4680BD3003002000380140BA
:100C400090B58BB000AF786014243B1918001423C2
:100C50001A00002105F03EF97B681B68464A934262
:100C600000D085E0454B9A69444B8021C9010A4375
:100C70009A61424B9A698023DB0113403B613B69D7
:100C80003E4B5A693D4B8021C9020A435A613B4B96
:100C90005A698023DB021340FB60FB6821007B184C
:100CA000C0221A607B1812225A607B1800229A60B8
:100CB0007B180322DA607B1800221A617B18304A05
:100CC0001900100000F0A2FC2E4B2F4A1A602D4B89
:100CD00000225A602B4B00229A602A4B8022DA6055
:100CE000284B00221A61274B00225A61254B002213
:100CF0009A61244B0022DA61224B180000F05AFA64
:100D0000031E01D0FFF780FD7B681E4A5A671D4B0A
:100D10007A685A621D4B1E4A1A601C4B10225A6098
:100D20001A4B00229A60194B8022DA60174B00227E
:100D30001A61164B00225A61144B00229A61134B20
:100D40000022DA61114B180000F034FA031E01D0C2
:100D5000FFF75AFD7B680D4A1A670C4B7A685A6296
:100D6000002200211B2000F0FFF91B2000F011FAE7
:100D7000C046BD460BB090BD003801400010024097
:100D800000040048B803002030000240FC030020AB
:100D90001C00024013488546FFF71CFF12480168FB
:100DA000090E124A914205D11148124901601248B8
:100DB0001249016012481349134A002302E0D45833
:100DC000C4500433C4188C42F9D3104A104C002389
:100DD00001E013600432A242FBD305F0D7F8FFF71D
:100DE00057FCFEE700180020040000001F00000070
:100DF0001810024001000000000001400000000047
:100E000000000020680000202C6C00086800002012
:100E100090050020FEE7000080B582B000AF0A23F5
:100E20007B607A680448C823A02101F05FF80300C2
:100E30001800BD4602B080BD8400002080B586B099
:100E400004AF39601100BB1D021C1A803B1D0A1C37
:100E50001A803B1D1A8880235B009A4201D9012326
:100E60000EE0BB1D1A880848C82302933B1D1B884F
:100E700001933B6800930123A02100F003FF0300CE
:100E80001800BD4602B080BD84000020B0B58AB015
:100E900004AF39601100BB1D021C1A803B1D0A1CE7
:100EA0001A803B1D1A8880235B009A4201D90123D6
:100EB00077E01723FB1801221A703B1D1B88082BB3
:100EC0000FD8BB1D1A883948C82302933B1D1B88C5
:100ED00001933B6800930123A02100F0A5FD0300CE
:100EE0005FE03B683B610C23FB183A1D1288D20877
:100EF0001A800E23FB1800221A8028E017257C197F
:100F0000BB1D1A882948C8230293082301933B6913
:100F100000930123A02100F087FD030023703B69AB
:100F200008333B61BB1DBA1D128808321A800520A8
:100F300000F06EF87B191B78002B02D07B191B7810
:100F40002FE00E22BB18BA18128801321A800E2325
:100F5000FA180C23FB1812881B889A42CED33B1D2B
:100F60001B88DAB20B203B1807210A401A703B1885
:100F70001B78002B12D03B181B789BB21722BC1891
:100F8000BA1D12880948C821029101933B69009358
:100F90000123A02100F048FD030023701723FB1854
:100FA0001B781800BD4606B0B0BDC04684000020C6
:100FB00080B500AF074B1A68064B10210A431A6030
:100FC0000120FFF74BFCFFF725FC00231800BD466E
:100FD00080BDC0460020024080B500AF054B1B78A5
:100FE0001A00054B1B68D218034B1A60C046BD4659
:100FF00080BDC046080000204004002080B500AF3E
:10100000024B1B681800BD4680BDC046400400204E
:1010100080B584B000AF7860FFF7F0FF0300BB60DD
:101020007B68FB60FB68013305D00A4B1B781A0014
:10103000FB689B18FB60C046FFF7E0FF0200BB683F
:10104000D31AFA689A42F7D8C046C046BD4604B0E3
:1010500080BDC0460800002080B582B000AF02000D
:10106000FB1D1A70FB1D1B787F2B09D8FB1D1B78FD
:101070001A001F231A40044B012191400A001A60F4
:10108000C046BD4602B080BD00E100E090B583B02F
:1010900000AF02003960FB1D1A70FB1D1B787F2B0F
:1010A00028D82F4AFB1D1B785BB29B08C0339B00DE
:1010B0009B58FA1D1278110003220A40D200FF212A
:1010C00091400A00D2431A4011003B689B01FF2265
:1010D0001A40FB1D1B78180003230340DB009A40D5
:1010E0001F48FB1D1B785BB29B080A43C0339B0063
:1010F0001A5031E01B4AFB1D1B7819000F230B40CF
:10110000083B9B0806339B00D31804331B68FA1D69
:101110001278110003220A40D200FF2191400A00F8
:10112000D2431A4011003B689B01FF221A40FB1D6D
:101130001B78180003230340DB009A400948FB1D7D
:101140001B781C000F232340083B9B080A430633EF
:101150009B00C31804331A60C046BD4603B090BD5F
:1011600000E100E000ED00E080B584B000AFB960C0
:101170007A600F217B18021C1A70BA687B181B78E2
:101180005BB211001800FFF781FFC046BD4604B0F6
:1011900080BD80B582B000AF0200FB1D1A70FB1D40
:1011A0001B785BB21800FFF757FFC046BD4602B080
:1011B00080BD000080B584B000AF78600023FB6084
:1011C0007B68002B01D1012336E07B6821220221BC
:1011D00099547B681B681B68FB60FB68184A1340C6
:1011E000FB607B685A687B689B681A437B68DB6896
:1011F0001A437B681B691A437B685B691A437B68E7
:101200009B691A437B68DB691343FA681343FB60ED
:101210007B681B68FA681A607B68180000F0DAF9CE
:101220007B6800229A637B682122012199547B68A4
:1012300020220021995400231800BD4604B080BD2F
:101240000FC0FFFF80B586B000AFF860B9607A606C
:101250003B601723FB1800221A70FB6820229B5C5E
:10126000012B01D102234FE0FB6820220121995478
:10127000FB6821229B5CDBB2012B3AD1FB68212267
:1012800002219954FB6800229A63FB681B681A6864
:10129000FB681B6801218A431A603B687A68B96859
:1012A000F86800F06AF9FB68DB6A002B08D0FB687D
:1012B0001B681A68FB681B680E210A431A600FE05E
:1012C000FB681B681A68FB681B680A210A431A60DE
:1012D000FB681B681A68FB681B6804218A431A6054
:1012E000FB681B681A68FB681B6801210A431A60C7
:1012F00007E0FB682022002199541723FB180222E3
:101300001A701723FB181B781800BD4606B080BD65
:1013100080B582B000AF78607B6821229B5CDBB235
:10132000022B08D07B6804229A637B68202200216C
:101330009954012320E07B681B681A687B681B684E
:101340000E218A431A607B681B681A687B681B68D9
:1013500001218A431A607B681A6C7B68DB6B012170
:1013600091400A005A607B682122012199547B68D0
:1013700020220021995400231800BD4602B080BDF0
:1013800080B584B000AF78600F217B1800221A70FE
:101390007B6821229B5CDBB2022B06D07B68042297
:1013A0009A637B1801221A7028E07B681B681A6810
:1013B0007B681B680E218A431A607B681B681A6869
:1013C0007B681B6801218A431A607B681A6C7B6802
:1013D000DB6B012191400A005A607B6821220121C8
:1013E00099547B682022002199547B685B6B002B09
:1013F00004D07B685B6B7A68100098470F23FB185A
:101400001B781800BD4604B080BD80B584B000AF25
:1014100078607B68DB6B1B68FB607B681B681B6804
:10142000BB607B681B6C04229A401300FA6813406F
:1014300024D0BB680422134020D07B681B681B6843
:101440002022134007D17B681B681A687B681B68E1
:1014500004218A431A607B681A6C7B68DB6B042169
:1014600091400A005A607B68DB6A002B00D16AE079
:101470007B68DB6A7A681000984764E07B681B6CC5
:1014800002229A401300FA6813402BD0BB68022254
:10149000134027D07B681B681B68202213400BD1A8
:1014A0007B681B681A687B681B680A218A431A607C
:1014B0007B682122012199547B681A6C7B68DB6B65
:1014C000022191400A005A607B6820220021995431
:1014D0007B689B6A002B36D07B689B6A7A68100019
:1014E000984730E07B681B6C08229A401300FA682A
:1014F000134028D0BB680822134024D07B681B68A7
:101500001A687B681B680E218A431A607B681A6C14
:101510007B68DB6B012191400A005A607B680122E5
:101520009A637B682122012199547B682022002143
:1015300099547B681B6B002B05D07B681B6B7A680A
:1015400010009847FFE7C046BD4604B080BD80B597
:1015500082B000AF78607B6821229B5CDBB2180010
:10156000BD4602B080BD80B582B000AF78607B68B8
:101570009B6B1800BD4602B080BD80B584B000AF43
:10158000F860B9607A603B60FB681A6CFB68DB6BE3
:10159000012191400A005A60FB681B683A685A6052
:1015A000FB685B68102B08D1FB681B687A689A603F
:1015B000FB681B68BA68DA6007E0FB681B68BA68FA
:1015C0009A60FB681B687A68DA60C046BD4604B062
:1015D00080BD000080B582B000AF78607B681B687A
:1015E000084A9446634414211800FEF797FD03004F
:1015F0009A007B681A647B68034ADA63C046BD467A
:1016000002B080BDF8FFFDBF0000024080B586B08B
:1016100000AF7860396000237B6149E13B681B685B
:1016200001217A6991400A001340FB60FB68002B9E
:1016300000D13AE13B685B6803221340012B05D0DF
:101640003B685B6803221340022B30D17B689B68A8
:101650003B617B695B0003229A401300DA433B69DC
:1016600013403B613B68DA687B695B009A4013007A
:101670003A6913433B617B683A699A607B685B68AF
:101680003B6101227B699A401300DA433B691340B6
:101690003B613B685B681B0901221A407B699A40E9
:1016A00013003A6913433B617B683A695A603B68AF
:1016B0005B6803221340032B17D07B68DB683B6118
:1016C0007B695B0003229A401300DA433B691340B5
:1016D0003B613B689A687B695B009A4013003A69FA
:1016E00013433B617B683A69DA603B685B680322BD
:1016F0001340022B23D17B69DA087B680832920001
:10170000D3583B617B69072213409B000F229A400C
:101710001300DA433B6913403B613B681A697B69FC
:1017200007210B409B009A4013003A6913433B6129
:101730007B69DA087B68083292003969D1507B688E
:101740001B683B617B695B0003229A401300DA430C
:101750003B6913403B613B685B6803221A407B692D
:101760005B009A4013003A6913433B617B683A6916
:101770001A603B685A68C0239B02134000D194E072
:10178000514B9A69504B01210A439A614E4B9B6918
:1017900001221340BB60BB684C4A7B699B08023343
:1017A0009B009B583B617B69032213409B000F22E7
:1017B0009A401300DA433B6913403B617A689023F7
:1017C000DB059A420DD07B68414A934207D07B6883
:1017D000404A934201D1022304E0052302E00123A1
:1017E00000E000237A6903210A40920093403A699D
:1017F00013433B6135497B699B0802339B003A697F
:101800005A50354B9B683B61FB68DA433B69134098
:101810003B613B685A6880235B03134003D03A69FD
:10182000FB6813433B612C4B3A699A602A4BDB6897
:101830003B61FB68DA433B6913403B613B685A6894
:1018400080239B03134003D03A69FB6813433B6139
:10185000214B3A69DA60204B5B683B61FB68DA43F5
:101860003B6913403B613B685A6880239B021340ED
:1018700003D03A69FB6813433B61174B3A695A60DE
:10188000154B1B683B61FB68DA433B6913403B61C6
:101890003B685A6880235B02134003D03A69FB68B7
:1018A00013433B610C4B3A691A607B6901337B61DE
:1018B0003B681A687B69DA40131E00D0AEE6C0466A
:1018C000C046BD4606B080BD001002400000014089
:1018D00000040048000800480004014080B582B0C0
:1018E00000AF78607B68002B01D101238FE07B681B
:1018F00041229B5CDBB2002B07D17B684022002198
:1019000099547B681800FEF727FD7B68412224214B
:1019100099547B681B681A687B681B6801218A439D
:101920001A607B685A687B681B683B490A401A61E9
:101930007B681B689A687B681B6838490A409A6014
:101940007B68DB68012B08D17B689A687B681B6821
:10195000802109020A439A6007E07B689A687B68E5
:101960001B68842109020A439A607B68DB68022BAA
:1019700009D17B681B685A687B681B688021090154
:101980000A435A6007E07B681B685A687B681B68DB
:1019900023490A405A607B681B685A687B681B6849
:1019A00020490A435A607B681B68DA687B681B68B9
:1019B0001A490A40DA607B681A697B685B691A43D6
:1019C00011007B689B691A027B681B680A43DA6016
:1019D0007B68D9697B681A6A7B681B680A431A604E
:1019E0007B681B681A687B681B6801210A431A60C0
:1019F0007B6800225A647B684122202199547B68CD
:101A000000221A637B6842220021995400231800A7
:101A1000BD4602B080BDC046FFFFFFF0FF7FFFFF65
:101A2000FFF7FFFF0080000290B589B002AFF860B9
:101A30000C00100019000A23FB18221C1A8008232E
:101A4000FB18021C1A80BB1D0A1C1A80FB6841226D
:101A50009B5CDBB2202B00D00CE1BB6A002B04D0D6
:101A60002C23FB181B88002B05D1FB6880229200D9
:101A70005A640123FFE0FB6840229B5C012B01D1EB
:101A80000223F8E0FB68402201219954FFF7B6FADF
:101A900003007B6180231902F8687B690093192396
:101AA000012201F0E5F9031E01D00123E3E0FB6808
:101AB000412221219954FB68422240219954FB681C
:101AC00000225A64FB68BA6A5A62FB682C22BA1870
:101AD00012885A85FB6800225A63BB1D1C880823A4
:101AE000FB181A880A23FB181988F8687B69019388
:101AF0003B6B0093230000F0A1FC031E05D0FB68A4
:101B00004022002199540123B5E0FB685B8D9BB214
:101B1000FF2B11D9FB68FF221A85FB681B8DDAB2F7
:101B200080235C040A23FB181988F86800230093BB
:101B3000230001F077FB12E0FB685B8D9AB2FB6833
:101B40001A85FB681B8DDAB280239C040A23FB18DC
:101B50001988F86800230093230001F063FB7A6979
:101B6000396BFB68180001F0DBF9031E01D001237B
:101B700081E0FB685B6A1A78FB681B689A62FB6805
:101B80005B6A5A1CFB685A62FB685B8D9BB2013B27
:101B90009AB2FB685A85FB681B8D013B9AB2FB68C1
:101BA0001A85FB685B8D9BB2002B3AD0FB681B8DBE
:101BB000002B36D13A6BF8687B6900931300002242
:101BC000802101F055F9031E01D0012353E0FB6889
:101BD0005B8D9BB2FF2B11D9FB68FF221A85FB6836
:101BE0001B8DDAB280235C040A23FB181988F8687D
:101BF00000230093230001F015FB12E0FB685B8DCE
:101C00009AB2FB681A85FB681B8DDAB280239C04AC
:101C10000A23FB181988F86800230093230001F0B9
:101C200001FBFB685B8D9BB2002B98D17A69396B05
:101C3000FB68180001F0BAF9031E01D001231AE075
:101C4000FB681B682022DA61FB681B685A68FB6826
:101C50001B680B490A405A60FB68412220219954B5
:101C6000FB68422200219954FB68402200219954CC
:101C7000002300E002231800BD4607B090BDC04617
:101C800000E800FE90B589B002AFF8600C001000CB
:101C900019000A23FB18221C1A800823FB18021CB7
:101CA0001A80BB1D0A1C1A80FB6841229B5CDBB2B8
:101CB000202B00D010E1BB6A002B04D02C23FB1892
:101CC0001B88002B05D1FB68802292005A640123F7
:101CD00003E1FB6840229B5C012B01D10223FCE065
:101CE000FB68402201219954FFF788F903007B61CA
:101CF00080231902F8687B6900931923012201F0FF
:101D0000B7F8031E01D00123E7E0FB68412222213E
:101D10009954FB68422240219954FB6800225A647E
:101D2000FB68BA6A5A62FB682C22BA1812885A8574
:101D3000FB6800225A63BB1D1C880823FB181A8805
:101D40000A23FB181988F8687B6901933B6B0093A1
:101D5000230000F0D7FB031E05D0FB6840220021C2
:101D600099540123B9E0FB685B8D9BB2FF2B11D91D
:101D7000FB6801221A85FB681B8DDAB280235C04A4
:101D80000A23FB181988F868564B0093230001F0CA
:101D900049FA12E0FB685B8D9AB2FB681A85FB6812
:101DA0001B8DDAB280239C040A23FB181988F8687B
:101DB0004C4B0093230001F035FA3A6BF8687B69CD
:101DC000009313000022042101F052F8031E01D0F9
:101DD000012382E0FB681B685A6AFB685B6AD2B227
:101DE0001A70FB685B6A5A1CFB685A62FB681B8DA1
:101DF000013B9AB2FB681A85FB685B8D9BB2013B85
:101E00009AB2FB685A85FB685B8D9BB2002B3AD077
:101E1000FB681B8D002B36D13A6BF8687B69009309
:101E200013000022802101F023F8031E01D00123BA
:101E300053E0FB685B8D9BB2FF2B11D9FB6801223D
:101E40001A85FB681B8DDAB280235C040A23FB1819
:101E50001988F86800230093230001F0E3F912E0E9
:101E6000FB685B8D9AB2FB681A85FB681B8DDAB242
:101E700080239C040A23FB181988F8680023009328
:101E8000230001F0CFF9FB685B8D9BB2002B94D14E
:101E90007A69396BFB68180001F088F8031E01D0DD
:101EA00001231AE0FB681B682022DA61FB681B68CB
:101EB0005A68FB681B680C490A405A60FB6841225B
:101EC00020219954FB68422200219954FB6840224A
:101ED00000219954002300E002231800BD4607B0FA
:101EE00090BDC0460024008000E800FE80B58AB0A6
:101EF00002AFF8607A603B600A23FB180A1C1A8064
:101F000000237B61FB6841229B5CDBB2202B00D06D
:101F1000DFE0FB681B689A6980231B021A4080235C
:101F20001B029A4201D10223D4E0FB6840229B5C51
:101F3000012B01D10223CDE0FB68402201219954FD
:101F4000FB68412224219954FB6800225A64FB68F3
:101F5000DB68012B07D10A23FB181B889B059B0D0F
:101F60005E4A1A4306E00A23FB181B889B059B0D5B
:101F70005B4A1A43FB681B685A60FFF73FF803008F
:101F8000BB61FB681B689B6920221340203B5A42BF
:101F90005341DAB21F23FB181A70FB681B689B6958
:101FA00010221340103B5A425341DAB21E23FB1851
:101FB0001A7035E03B6801331AD0FFF71FF80200B2
:101FC000BB69D31A3A689A4202D33B68002B0FD1FF
:101FD000FB68412220219954FB685B6C20221A4344
:101FE000FB685A64FB68402200219954012371E088
:101FF000FB681B689B6920221340203B5A425341D7
:10200000DAB21F23FB181A70FB681B689B69102249
:102010001340103B5A425341DAB21E23FB181A7088
:102020001F23FB181B78002B04D11E23FB181B78E1
:10203000002BBFD0FB681B689B6910221340102B3C
:102040001AD03A68F868BB69009313000022202177
:1020500000F00EFF031E01D001233BE0FB681B686C
:102060002022DA61FB68412220219954FB6840223A
:102070000021995400232DE03A68F868BB69009369
:1020800013000022202100F0F3FE031E01D00123E3
:1020900020E0FB681B681022DA61FB681B682022C5
:1020A000DA617B6901337B617B697A689A4200D986
:1020B0004DE7FB68412220219954FB685B6C20228C
:1020C0001A43FB685A64FB6840220021995401239B
:1020D00000E002231800BD4608B080BD00200002C9
:1020E0000028000280B584B000AF78607B681B6870
:1020F0009B69FB607B681B681B68BB607B685B6BD4
:10210000002B05D07B685B6BBA68F96878689847E4
:10211000C046BD4604B080BD80B586B000AF7860D3
:102120007B681B689B697B617B681B681B683B61E4
:102130007A6980235B0013400ED03B6980221340F4
:102140000AD07B685B6C01221A437B685A647B6807
:102150001B6880225200DA617A698023DB00134019
:102160000ED03B69802213400AD07B685B6C08224A
:102170001A437B685A647B681B688022D200DA614C
:102180007A6980239B0013400ED03B698022134064
:102190000AD07B685B6C02221A437B685A647B68B6
:1021A0001B6880229200DA617B685B6CFB60FB68D5
:1021B0000B22134005D0FA687B681100180000F06C
:1021C000EBFCC046BD4606B080BD80B582B000AF16
:1021D0007860C046BD4602B080BD80B582B000AF19
:1021E0007860C046BD4602B080BD80B582B000AF09
:1021F000786008001100FB1C021C1A703B000A1CCE
:102200001A80C046BD4602B080BD80B582B000AF26
:102210007860C046BD4602B080BD80B582B000AFD8
:102220007860C046BD4602B080BD80B582B000AFC8
:102230007860C046BD4602B080BD000080B586B063
:1022400000AFF860B9607A60FB68DB6A7B61BB68ED
:102250003B61FB6840229B5C012B01D10223E7E03C
:10226000FB684022012199543B69202213400AD087
:102270007B682022134006D03A69FB6811001800E1
:1022800000F0AAFACFE03B691022134052D07B68DD
:10229000102213404ED0FB685B8D9BB2002B2DD1DA
:1022A000FB6841229B5CDBB2282B0BD17A6980232F
:1022B0009B049A4206D13A69FB681100180000F0AD
:1022C00013FC36E0FB6841229B5CDBB2292B10D16A
:1022D0007B69594A93420CD0FB681B681022DA6173
:1022E000FB68180000F083FDFB68180000F010FA8E
:1022F0001FE0FB681B681022DA6191E0FB681B6835
:102300001022DA61FB685B6C04221A43FB685A6492
:102310007B69002B05D07A6980235B049A4200D048
:102320007EE0FB685A6CFB681100180000F034FC7A
:1023300076E075E03B69042213402FD07B680422CD
:1023400013402BD0FB685B8D9BB2002B18D0FB6831
:102350001B685A6AFB685B6AD2B21A70FB685B6AD8
:102360005A1CFB685A62FB681B8D013B9AB2FB68E2
:102370001A85FB685B8D9BB2013B9AB2FB685A855C
:10238000FB685B8D9BB2002B4CD17B692A4A934240
:1023900048D0FB68180000F0BBF943E03B69082215
:1023A00013400AD07B680822134006D03A69FB68C4
:1023B0001100180000F008F935E03B6902221340D3
:1023C00031D07B68022213402DD0FB685B8D9BB21D
:1023D000002B18D0FB685B6A1A78FB681B689A624E
:1023E000FB685B6A5A1CFB685A62FB685B8D9BB298
:1023F000013B9AB2FB685A85FB681B8D013B9AB280
:10240000FB681A850FE07A6980235B049A4202D048
:102410007B69002B07D1FB68180000F079F902E016
:10242000C04600E0C046FB684022002199540023CA
:102430001800BD4606B080BD0000FFFFB0B586B0F5
:1024400002AFF8600C00100019000A257B19221C4D
:102450001A800823FB18021C1A80BB1D0A1C1A8054
:10246000BB1D1B88DAB280235C047B191988F868CD
:10247000234B0093230000F0D5FE7A6A396AFB688B
:10248000180000F04DFD031E01D0012333E0BB1DF9
:102490001B88012B07D10823FB181B88DAB2FB68C5
:1024A0001B689A6219E00823FB181B881B0A9BB261
:1024B000DAB2FB681B689A627A6A396AFB681800AC
:1024C00000F02EFD031E01D0012314E00823FB18A9
:1024D0001B88DAB2FB681B689A623A6AF8687B6A02
:1024E000009313000022802100F0C2FC031E01D0E3
:1024F000012300E000231800BD4604B0B0BDC04673
:1025000000200080B0B586B002AFF8600C0010006B
:1025100019000A257B19221C1A800823FB18021CAB
:102520001A80BB1D0A1C1A80BB1D1B88DAB27B19DE
:102530001988F868234B0093002300F073FE7A6A31
:10254000396AFB68180000F0EBFC031E01D0012380
:1025500033E0BB1D1B88012B07D10823FB181B8808
:10256000DAB2FB681B689A6219E00823FB181B8823
:102570001B0A9BB2DAB2FB681B689A627A6A396AF4
:10258000FB68180000F0CCFC031E01D0012314E00E
:102590000823FB181B88DAB2FB681B689A623A6A48
:1025A000F8687B6A009313000022402100F060FC71
:1025B000031E01D0012300E000231800BD4604B033
:1025C000B0BDC04600200080B0B584B000AF7860D8
:1025D00039607B6841229B5CDBB21A0028231340E0
:1025E000282B00D088E07B681B689B691B0CDAB243
:1025F0000F257B1901210A401A707B681B689B69B3
:102600001B0C9AB20C203B18FE210A401A807B68F2
:102610001B689B689AB20A243B199205920D1A8096
:102620007B681B68DB689AB20823FB18FE210A400E
:102630001A807B68DB68022B48D121007B181B883D
:10264000DB099AB23B181B8853409BB21A00062341
:10265000134020D13B187A1812881A807B689B6C33
:102660005A1C7B689A647B689B6C022B4CD17B68FC
:1026700000229A647B681B680822DA617B6840222A
:10268000002199543B181A887B1919787B68180027
:10269000FFF7ABFD38E00C243B190822BA1812886A
:1026A0001A8080231A027B681100180000F0F4FDE4
:1026B0007B684022002199543B191A880F23FB188C
:1026C00019787B681800FFF790FD1DE080231A023F
:1026D0007B681100180000F0DFFD7B6840220021BC
:1026E00099540C23FB181A880F23FB1819787B6860
:1026F0001800FFF77AFD07E07B681B680822DA61A3
:102700007B68402200219954C046BD4604B0B0BD4C
:1027100080B584B000AF78607B681B681B68FB6085
:102720007B68422200219954FA688023DB01134020
:1027300008D07B681B681A687B681B6824490A40BC
:102740001A600CE0FA6880231B02134007D07B68F4
:102750001B681A687B681B681E490A401A607B6800
:1027600041229B5CDBB2292B14D17B6841222821BA
:1027700099547B6821221A637B680121180000F0BC
:102780008BFD7B684022002199547B681800FFF77D
:102790001CFD19E07B6841229B5CDBB22A2B13D124
:1027A0007B684122282199547B6822221A637B6826
:1027B0000221180000F070FD7B684022002199542E
:1027C0007B681800FFF709FDC046BD4604B080BD18
:1027D000FFBFFFFFFF7FFFFF80B586B000AF7860CF
:1027E00039607B681B681B683B613B687B617B6869
:1027F000DB6AFB600B203B187A684121525C1A703F
:102800007B681B682022DA613B181B78212B03D0E0
:102810003B181B78292B09D1AC4A7B6811001800A2
:1028200000F03AFD7B6821221A6320E00B22BB18DE
:102830001B78222B03D0BB181B782A2B09D1A44A62
:102840007B681100180000F027FD7B6822221A63C4
:102850000DE00B23FB181B78282B08D19D4A7B68C1
:102860001100180000F018FD7B6800221A637B68D5
:102870001B685A687B681B68802109020A435A60FA
:102880007B681B685A687B681B6893490A405A60DA
:102890007B68180000F0ABFA3A698023DB01134033
:1028A00013D07B681B681A687B681B688B490A40D9
:1028B0001A607B689B6B002B1FD07B689B6B1B682F
:1028C0005B689AB27B685A8517E03A6980231B02DD
:1028D000134012D07B681B681A687B681B688049AC
:1028E0000A401A607B68DB6B002B06D07B68DB6BD1
:1028F0001B685B689AB27B685A857B690422134027
:1029000020D07B69042293437B617B681B685A6AF1
:102910007B685B6AD2B21A707B685B6A5A1C7B6800
:102920005A627B681B8D002B0CD07B681B8D013B92
:102930009AB27B681A857B685B8D9BB2013B9AB229
:102940007B685A857B685B8D9BB2002B05D07B68CA
:102950005B6C04221A437B685A647B691022134023
:102960004FD03B69102213404BD07B685B8D9BB2EC
:10297000002B2DD17B6841229B5CDBB2282B0BD135
:10298000FA6880239B049A4206D17A697B68110019
:10299000180000F0A9F834E07B6841229B5CDBB2B0
:1029A000292B10D1FB684F4A93420CD07B681B68DF
:1029B0001022DA617B68180000F019FA7B681800B1
:1029C000FFF7A6FE1DE07B681B681022DA6118E0A5
:1029D0007B681B681022DA617B685B6C04221A43F7
:1029E0007B685A64FB68002B04D0FA6880235B0480
:1029F0009A4206D17B685A6C7B681100180000F07F
:102A0000CBF87B684222002199547B6800225A63EC
:102A10007B685B6C002B13D07B685A6C7B68110061
:102A2000180000F0B9F87B6841229B5CDBB2282BD0
:102A300047D17A697B681100180000F055F840E032
:102A40007B68DB6A274A934216D07B681800FFF741
:102A50005FFE7B68234ADA627B6841222021995419
:102A60007B6800221A637B684022002199547B68AE
:102A70001800FFF7CAFB24E07B6841229B5CDBB2B5
:102A8000222B0FD17B684122202199547B680022A0
:102A90001A637B684022002199547B681800FFF775
:102AA0009CFB0EE07B684122202199547B68002228
:102AB0001A637B684022002199547B681800FFF755
:102AC00084FBC046BD4606B080BDC0460180000004
:102AD000028000000380000000E800FEFFBFFFFF4F
:102AE000FF7FFFFF0000FFFF80B582B000AF78607E
:102AF00039607B68264ADA627B6800221A637B6849
:102B00004122202199547B684222002199547B68FC
:102B100000225A633B680422134022D07B681B6862
:102B20005A6A7B685B6AD2B21A707B685B6A5A1C0D
:102B30007B685A627B681B8D002B12D07B681B8DD3
:102B4000013B9AB27B681A857B685B8D9BB2013B27
:102B50009AB27B685A857B685B6C04221A437B6857
:102B60005A640C4A7B681100180000F095FB7B68E2
:102B70001B681022DA617B684022002199547B682F
:102B80001800FFF742FBC046BD4602B080BDC046FC
:102B90000000FFFF0380000080B584B000AF7860C4
:102BA00039600F203B187A684121525C1A707B68AB
:102BB0004222002199547B68724ADA627B680022C3
:102BC0005A857B685A6C3B681A437B685A643B1889
:102BD0001B78282B07D03B181B78292B03D03B18D8
:102BE0001B782A2B0CD17B680321180000F054FBC2
:102BF0007B684122282199547B68634A5A6332E0FA
:102C0000624A7B681100180000F046FB7B681800E0
:102C100000F0EDF87B6841229B5CDBB2602B1FD09B
:102C20007B684122202199547B681B689B69202284
:102C30001340202B14D17B681B689B691022134022
:102C4000102B09D17B681B681022DA617B685B6CF2
:102C500004221A437B685A647B681B682022DA616D
:102C60007B6800225A637B681B6BBB607B689B6B35
:102C7000002B3BD0BB68112B02D0BB68212B35D178
:102C80007B681B681A688023DB011A408023DB0104
:102C90009A4207D17B681B681A687B681B683C49AD
:102CA0000A401A607B689B6B1800FEF750FC03001B
:102CB000012B16D07B689B6B364A5A637B68402297
:102CC000002199547B689B6B1800FEF759FB031E8B
:102CD00051D07B689B6B5A6B7B689B6B180090474D
:102CE00049E07B68180000F059F844E07B68DB6B32
:102CF000002B3BD0BB68122B02D0BB68222B35D1F6
:102D00007B681B681A6880231B021A4080231B0201
:102D10009A4207D17B681B681A687B681B681E494A
:102D20000A401A607B68DB6B1800FEF710FC03009A
:102D3000012B16D07B68DB6B164A5A637B684022F6
:102D4000002199547B68DB6B1800FEF719FB031E0A
:102D500013D07B68DB6B5A6B7B68DB6B180090478A
:102D60000BE07B68180000F019F806E07B6818009B
:102D700000F014F802E0C04600E0C046C046BD4680
:102D800004B080BD0000FFFF3D220008038000006A
:102D9000FFBFFFFF332E0008FF7FFFFF80B582B02B
:102DA00000AF78607B6841229B5CDBB2602B0FD167
:102DB0007B684122202199547B6800221A637B683A
:102DC0004022002199547B681800FFF72EFA0AE090
:102DD0007B6800221A637B684022002199547B683B
:102DE0001800FFF71AFAC046BD4602B080BD80B594
:102DF00082B000AF78607B681B689B690222134039
:102E0000022B03D17B681B6800229A627B681B68D7
:102E10009B6901221340012B07D07B681B689A69CC
:102E20007B681B6801210A439A61C046BD4602B017
:102E300080BD80B584B000AF78607B685B6AFB6062
:102E4000FB689B6B002B03D0FB689B6B00225A63D3
:102E5000FB68DB6B002B03D0FB68DB6B00225A6343
:102E6000FB681800FFF79AFFC046BD4604B080BD5E
:102E700080B584B000AFF860B9603B60FB1D1A708C
:102E80003AE0BA693968FB68180000F0D3F8031E0D
:102E900001D0012340E03B6801332DD0FEF7AEF8AE
:102EA0000200BB69D31A3A689A4202D33B68002BEE
:102EB00022D1FB681B689B69BA681340BA68D31AB1
:102EC0005A425341DBB21A00FB1D1B789A4213D1C0
:102ED000FB685B6C20221A43FB685A64FB68412242
:102EE00020219954FB68422200219954FB6840221A
:102EF0000021995401230FE0FB681B689B69BA68A5
:102F00001340BA68D31A5A425341DBB21A00FB1D70
:102F10001B789A42B5D000231800BD4604B080BD8E
:102F200080B584B000AFF860B9607A6032E07A684A
:102F3000B968FB68180000F07DF8031E01D001237A
:102F400030E0BB68013325D0FEF758F802007B68FB
:102F5000D31ABA689A4202D3BB68002B1AD1FB6815
:102F60001B689B6902221340022B13D0FB685B6C29
:102F700020221A43FB685A64FB684122202199549D
:102F8000FB68422200219954FB6840220021995499
:102F9000012307E0FB681B689B6902221340022B98
:102FA000C5D100231800BD4604B080BD80B584B0F3
:102FB00000AFF860B9607A602FE07A68B968FB68A2
:102FC000180000F037F8031E01D001232DE0FEF7B2
:102FD00015F802007B68D31ABA689A4202D3BB681C
:102FE000002B1AD1FB681B689B6920221340202B01
:102FF00013D0FB685B6C20221A43FB685A64FB68A1
:10300000412220219954FB68422200219954FB68F7
:10301000402200219954012307E0FB681B689B694B
:1030200020221340202BC8D100231800BD4604B035
:1030300080BD000080B58AB000AFF860B9607A60EA
:103040002723FB1800221A70FB681B689B69BB6171
:1030500000233B627B68FB61BB691022134000D1F7
:1030600079E0FB681B681022DA6157E02722BB1861
:10307000BA1812781A70BB6801334FD0FDF7BEFF43
:103080000200FB69D31ABA689A4202D3BB68002BCC
:1030900044D1FB681B685A688023DB0113407B61C5
:1030A00013203B18FA684221525C1A70FB681B68B7
:1030B0009A6980231B021A4080231B029A4226D160
:1030C0007A698023DB019A4221D03B181B78202BA0
:1030D0001DD0FB681B685A68FB681B688021C9010A
:1030E0000A435A60FDF78AFF0300FB610FE0FDF71A
:1030F00085FF0200FB69D31A192B08D93B6A2022ED
:1031000013433B622723FB1801221A7006E0FB6879
:103110001B689B6920221340202BE8D1FB681B68A9
:103120009B6920221340202B04D02723FB181B78F7
:10313000002B9BD02723FB181B78002B03D1FB68A7
:103140001B682022DA613B6A042213433B62272377
:10315000FB1801221A70FB681B689B69BB61BA6986
:1031600080235B0013400CD03B6A012213433B6277
:10317000FB681B6880225200DA612723FB180122BA
:103180001A70BA698023DB0013400CD03B6A082216
:1031900013433B62FB681B688022D200DA6127235D
:1031A000FB1801221A70BA6980239B0013400CD0CF
:1031B0003B6A022213433B62FB681B688022920039
:1031C000DA612723FB1801221A702723FB181B78CA
:1031D000002B1DD0FB681800FFF709FEFB681B6879
:1031E0005A68FB681B680E490A405A60FB685A6CB3
:1031F0003B6A1A43FB685A64FB68412220219954B8
:10320000FB68422200219954FB6840220021995416
:103210002723FB181B781800BD460AB080BDC046A6
:1032200000E800FE90B587B000AFF860080011001C
:103230007B600A243B19021C1A8009203B180A1CD7
:103240001A703B191B889B059A0D3B181B781904B3
:10325000FF231B040B401A437B681A43BB6A1343CA
:103260005B005B087B61FB681B685B68BA6A510D99
:103270008022D2000A4007490A43D2431A40110073
:10328000FB681B687A690A435A60C046BD4607B0AE
:1032900090BDC046FF63FF0380B584B000AF786087
:1032A0000A00BB1C1A800023FB60BB1C1B88012288
:1032B000134010D0FB6842221343FB607B6841221D
:1032C0009B5CDBB21A0028231340282B03D0FB6839
:1032D000B0221343FB60BB1C1B880222134010D09A
:1032E000FB6844221343FB607B6841229B5CDBB29A
:1032F0001A0028231340282B03D0FB68B022134365
:10330000FB60BB1C00229B5E002B03DAFB68B8222B
:103310001343FB60BB1C1B88102B03D1FB6890225E
:103320001343FB60BB1C1B88202B03D1FB682022AE
:103330001343FB60BB1C1B88402B03D1FB6840225E
:103340001343FB607B681B681A68FB68D9437B6882
:103350001B680A401A60C046BD4604B080BD00002C
:1033600080B582B000AF786039607B6841229B5C99
:10337000DBB2202B38D17B6840229B5C012B01D132
:10338000022332E07B684022012199547B6841226C
:10339000242199547B681B681A687B681B6801218B
:1033A0008A431A607B681B681A687B681B6811492E
:1033B0000A401A607B681B6819687B681B683A685A
:1033C0000A431A607B681B681A687B681B680121C6
:1033D0000A431A607B684122202199547B6840226D
:1033E00000219954002300E002231800BD4602B0DA
:1033F00080BDC046FFEFFFFF80B584B000AF7860AE
:1034000039607B6841229B5CDBB2202B39D17B6821
:1034100040229B5C012B01D1022333E07B684022D8
:10342000012199547B684122242199547B681B68AF
:103430001A687B681B6801218A431A607B681B68D5
:103440001B68FB60FB68114A1340FB603B681B0272
:10345000FA681343FB607B681B68FA681A607B6834
:103460001B681A687B681B6801210A431A607B6825
:103470004122202199547B68402200219954002345
:1034800000E002231800BD4604B080BDFFF0FFFF3E
:1034900080B588B000AF78607B68002B02D1012333
:1034A00000F076FB7B681B680122134000D18EE0A0
:1034B000C54B5B680C221340042B0ED0C24B5B68DB
:1034C0000C221340082B17D1BF4B5A68C0235B0254
:1034D0001A4080235B029A420ED1BB4B1A688023AC
:1034E0009B02134000D171E07B685B68002B00D029
:1034F0006CE0012300F04CFB7B685B68012B07D17B
:10350000B14B1A68B04B802149020A431A602FE080
:103510007B685B68002B0CD1AB4B1A68AA4BAB499C
:103520000A401A60A84B1A68A74BA9490A401A60BA
:103530001EE07B685B68052B0ED1A34B1A68A24B7B
:103540008021C9020A431A609F4B1A689E4B802152
:1035500049020A431A600BE09B4B1A689A4B9B493D
:103560000A401A60984B1A68974B99490A401A60AA
:103570007B685B68002B14D0FDF740FD0300BB6146
:1035800008E0FDF73BFD0200BB69D31A642B01D9AB
:103590000323FDE28C4B1A6880239B021340F0D07A
:1035A00015E0FDF72BFD0300BB6108E0FDF726FDEC
:1035B0000200BB69D31A642B01D90323E8E2824BD2
:1035C0001A6880239B021340F0D100E0C0467B685C
:1035D0001B680222134000D16CE07B4B5B680C221D
:1035E00013400ED0784B5B680C221340082B1FD180
:1035F000754B5A68C0235B021A4080231B029A4213
:1036000016D1714B1B680222134005D07B68DB6822
:10361000012B01D00123BBE26B4B1B68F8229343C3
:1036200019007B681B69DA00674B0A431A6041E0A6
:103630007B68DB68002B24D0634B1A68624B012146
:103640000A431A60FDF7DAFC0300BB6108E0FDF7EE
:10365000D5FC0200BB69D31A022B01D9032397E2E0
:10366000594B1B6802221340F1D0574B1B68F822BC
:10367000934319007B681B69DA00534B0A431A60B5
:1036800018E0514B1A68504B01218A431A60FDF72C
:10369000B5FC0300BB6108E0FDF7B0FC0200BB69AC
:1036A000D31A022B01D9032372E2474B1B68022273
:1036B0001340F1D17B681B680822134036D07B6829
:1036C000DB69002B19D0404B5A6A3F4B01210A435A
:1036D0005A62FDF793FC0300BB6108E0FDF78EFC26
:1036E0000200BB69D31A022B01D9032350E2364BE7
:1036F0005B6A02221340F1D018E0334B5A6A324B16
:1037000001218A435A62FDF779FC0300BB6108E09E
:10371000FDF774FC0200BB69D31A022B01D9032305
:1037200036E2294B5B6A02221340F1D17B681B68A9
:103730000422134000D1B5E01F203B1800221A706C
:10374000214BDA6980235B05134010D11E4BDA69E7
:103750001D4B802149050A43DA611B4BDA6980233E
:103760005B051340FB60FB683B1801221A70194B84
:103770001A6880235B0013401AD1164B1A68154B48
:10378000802149000A431A60FDF738FC0300BB6141
:1037900008E0FDF733FC0200BB69D31A642B01D9A2
:1037A0000323F5E10B4B1A6880235B001340F0D034
:1037B0007B689B68012B0FD1034B1A6A024B0121D6
:1037C0000A431A6236E0C04600100240FFFFFEFFC7
:1037D000FFFFFBFF007000407B689B68002B0CD153
:1037E000CA4B1A6AC94B01218A431A62C74B1A6A2B
:1037F000C64B04218A431A621CE07B689B68052B38
:103800000CD1C24B1A6AC14B04210A431A62BF4B46
:103810001A6ABE4B01210A431A620BE0BB4B1A6ABB
:10382000BA4B01218A431A62B84B1A6AB74B04217A
:103830008A431A627B689B68002B14D0FDF7DEFB7D
:103840000300BB6109E0FDF7D9FB0200BB69D31A95
:10385000AF4A934201D903239AE1AC4B1B6A02227F
:103860001340F0D013E0FDF7C9FB0300BB6109E092
:10387000FDF7C4FB0200BB69D31AA54A934201D9E4
:10388000032385E1A14B1B6A02221340F0D11F23C1
:10389000FB181B78012B05D19C4BDA699B4B9D498A
:1038A0000A40DA617B681B681022134063D07B6892
:1038B0005B69012B2AD1954B5A6B944B04210A4327
:1038C0005A63924B5A6B914B01210A435A63FDF79D
:1038D00095FB0300BB6108E0FDF790FB0200BB69AC
:1038E000D31A022B01D9032352E1884B5B6B0222CE
:1038F0001340F1D0854B5B6BF822934319007B6832
:103900009B69DA00814B0A435A6334E07B685B6948
:10391000053311D17D4B5A6B7C4B04218A435A638A
:103920007A4B5B6BF822934319007B689B69DA0042
:10393000764B0A435A631EE0744B5A6B734B042157
:103940000A435A63714B5A6B704B01218A435A6385
:10395000FDF754FB0300BB6108E0FDF74FFB0200DD
:10396000BB69D31A022B01D9032311E1674B5B6BAF
:1039700002221340F1D17B681B68202213405CD0E7
:10398000624B5B680C2213400C2B0ED05F4B5B68C4
:103990000C221340082B14D15C4B5A68C0235B02E5
:1039A0001A40C0235B029A420BD1584B5A6B8023BA
:1039B0009B02134040D07B681B6A012B3CD0012343
:1039C000E6E07B681B6A002B1BD0504B5A6B4F4BB9
:1039D000802149020A435A63FDF710FB0300BB61D3
:1039E00008E0FDF70BFB0200BB69D31A022B01D9DB
:1039F0000323CDE0454B5A6B80239B021340F0D04C
:103A00001BE0424B5A6B414B43490A405A63FDF756
:103A1000F5FA0300BB6108E0FDF7F0FA0200BB69AC
:103A2000D31A022B01D90323B2E0384B5A6B8023FF
:103A30009B021340F0D100E0C0467B685B6A002B1C
:103A400000D1A4E0314B5B680C221340082B00D15D
:103A500078E07B685B6A022B4CD12C4B1A682B4BAD
:103A60002E490A401A60FDF7C9FA0300BB6108E05D
:103A7000FDF7C4FA0200BB69D31A022B01D9032354
:103A800086E0224B1A6880239B041340F0D11F4B21
:103A9000DB6A0F22934319007B681A6B1B4B0A43A6
:103AA000DA621A4B5B681E4A134019007B68DA6AB7
:103AB0007B689B6A1A43154B0A435A60134B1A687A
:103AC000124B802149040A431A60FDF797FA03005C
:103AD000BB6108E0FDF792FA0200BB69D31A022B22
:103AE00001D9032354E0094B1A6880239B04134037
:103AF000F0D04CE0054B1A68044B08490A401A60A4
:103B0000FDF77CFA0300BB6115E0C04600100240DF
:103B100088130000FFFFFFEFFFFFFEFFFFFFFFFE28
:103B2000FF7FC2FFFDF76AFA0200BB69D31A022BBE
:103B300001D903232CE0184B1A6880239B041340FF
:103B4000F0D124E07B685B6A012B01D101231FE0E7
:103B5000114B5B687B61104BDB6A3B617A69C02368
:103B60005B021A407B689B6A9A420ED13B690F2226
:103B70001A407B681B6B9A4207D17A69F0239B033A
:103B80001A407B68DB6A9A4201D0012300E00023DF
:103B90001800BD4608B080BD0010024080B584B05A
:103BA00000AF786039607B68002B01D10123BFE052
:103BB000614B1B68012213403A689A4211D95E4B4F
:103BC0001B680122934319005B4B3A680A431A6051
:103BD000594B1B68012213403A689A4201D00123D5
:103BE000A6E07B681B680222134015D07B681B6827
:103BF0000422134006D0514B5A68504BE021C900B3
:103C00000A435A604D4B5B68F022934319007B686E
:103C10009A684A4B0A435A607B681B68012213402A
:103C20004CD07B685B68012B07D1444B1A6880231A
:103C30009B02134020D101237AE07B685B68022B52
:103C400007D13E4B1A6880239B04134014D10123F3
:103C50006EE07B685B68032B07D1384B5A6B80237F
:103C60009B02134008D1012362E0344B1B680222FF
:103C7000134001D101235BE0304B5B680322934387
:103C800019007B685A682D4B0A435A60FDF7B6F954
:103C90000300FB6009E0FDF7B1F90200FB68D31AED
:103CA000274A934201D9032342E0244B5B680C224C
:103CB0001A407B685B689B009A42ECD11E4B1B68E4
:103CC000012213403A689A4211D21B4B1B68012211
:103CD00093431900184B3A680A431A60164B1B6845
:103CE000012213403A689A4201D0012320E07B6808
:103CF0001B680422134009D0104B5B68114A134023
:103D000019007B68DA680D4B0A435A6000F020F80E
:103D100001000A4B5B681B090F2213400A4AD35C5F
:103D20000A00DA40094B1A600120FCF797FD0023D6
:103D30001800BD4604B080BD0020024000100240C3
:103D400088130000FFF8FFFFB86B00080000002098
:103D500080B586B000AF0023FB600023BB6000236A
:103D60007B6100237B6000233B612D4B5B68FB6024
:103D7000FB680C2213400C2B46D048D8042B02D0F1
:103D8000082B03D043E0274B3B6143E0FB689B0CCF
:103D90000F221340244AD35C7B60214BDB6A0F2245
:103DA0001340224AD35CBB60FA68C0235B021A400E
:103DB00080235B029A4209D1B9681A48FCF7AEF930
:103DC00003001A007B6853437B611AE0FA68C02342
:103DD0005B021A40C0235B029A4209D1B9681448B9
:103DE000FCF79CF903001A007B6853437B6108E0F1
:103DF000B9680C48FCF792F903001A007B6853433A
:103E00007B617B693B6105E0094B3B6102E0054B4F
:103E10003B61C0463B691800BD4606B080BDC04648
:103E20000010024000127A00D06B0008E06B00081E
:103E3000006CDC0280B500AF024B1B681800BD4669
:103E400080BDC0460000002080B500AFFFF7F2FF44
:103E50000100064B5B681B0A07221340044AD35C2F
:103E6000D9400B001800BD4680BDC046001002407E
:103E7000C86B000880B582B000AF786039607B689D
:103E800007221A600E4B5B6803221A407B685A6057
:103E90000B4B5B68F0221A407B689A60084B5A68AB
:103EA000E023DB001A407B68DA60064B1B680122C6
:103EB0001A403B681A60C046BD4602B080BDC0468D
:103EC000001002400020024080B586B000AF78604C
:103ED00000233B610023FB607B681A6880235B0240
:103EE000134000D18EE017203B1800221A70674B58
:103EF000DA6980235B05134010D1644BDA69634BA8
:103F0000802149050A43DA61604BDA6980235B0549
:103F10001340BB60BB683B1801221A705C4B1A68E7
:103F200080235B0013401AD1594B1A68584B8021EB
:103F300049000A431A60FDF761F803003B6108E09D
:103F4000FDF75CF802003B69D31A642B01D9032307
:103F500097E04F4B1A6880235B001340F0D04B4B27
:103F60001A6AC0239B001340FB60FB68002B34D00F
:103F70007B685A68C0239B001340FA689A422CD091
:103F8000424B1B6A434A1340FB60404B1A6A3F4B4B
:103F9000802149020A431A623C4B1A6A3B4B3E4954
:103FA0000A401A62394BFA681A62FB680122134010
:103FB00013D0FDF723F803003B6109E0FDF71EF87D
:103FC00002003B69D31A354A934201D9032358E0D2
:103FD0002E4B1B6A02221340F0D02C4B1B6A2D4A39
:103FE000134019007B685A68284B0A431A6217234A
:103FF000FB181B78012B05D1244BDA69234B284988
:104000000A40DA617B681B680122134009D01F4B0C
:104010001B6B0322934319007B689A681B4B0A436E
:104020001A637B681B682022134009D0174B1B6B57
:104030001022934319007B68DA68144B0A431A6311
:104040007B681A6880239B02134009D00F4B1B6BBF
:104050008022934319007B685A690C4B0A431A6308
:104060007B681A688023DB00134009D0074B1B6B69
:104070004022934319007B681A69044B0A431A6370
:1040800000231800BD4606B080BDC04600100240A7
:1040900000700040FFFCFFFFFFFFFEFF88130000E1
:1040A000FFFFFFEF80B582B000AF78607B68002B28
:1040B00001D1012342E07B683D229B5CDBB2002BF7
:1040C00007D17B683C22002199547B68180000F0DE
:1040D00039F87B683D22022199547B681A687B6815
:1040E00004331900100000F08FF97B68462201218B
:1040F00099547B683E22012199547B683F2201211B
:1041000099547B684022012199547B684122012106
:1041100099547B684222012199547B6843220121F2
:1041200099547B684422012199547B6845220121DE
:1041300099547B683D220121995400231800BD4603
:1041400002B080BD80B582B000AF7860C046BD4689
:1041500002B080BD80B584B000AF78607B683D223E
:104160009B5CDBB2012B01D0012336E07B683D2252
:10417000022199547B681B68DA687B681B680121FF
:104180000A43DA607B681B68164A93420AD07B6850
:104190001A688023DB059A4204D07B681B68124AA8
:1041A000934211D17B681B689B6807221340FB6018
:1041B000FB68062B10D07B681B681A687B681B683D
:1041C00001210A431A6007E07B681B681A687B6854
:1041D0001B6801210A431A6000231800BD4604B081
:1041E00080BDC046002C01400004004080B584B072
:1041F00000AF78607B681B68DB68FB607B681B68CE
:104200001B69BB60BB680222134021D0FB680222FD
:1042100013401DD07B681B68032252421A617B68E1
:1042200001221A777B681B689B690322134004D024
:104230007B68180000F0D0F807E07B68180000F0F9
:10424000C3F87B68180000F0CFF87B6800221A776B
:10425000BB680422134022D0FB68042213401ED006
:104260007B681B68052252421A617B6802221A771A
:104270007B681B689A69C0239B00134004D07B684D
:10428000180000F0A9F807E07B68180000F09CF81F
:104290007B68180000F0A8F87B6800221A77BB68DA
:1042A0000822134021D0FB68082213401DD07B68F0
:1042B0001B68092252421A617B6804221A777B68C4
:1042C0001B68DB690322134004D07B68180000F0F0
:1042D00083F807E07B68180000F076F87B68180028
:1042E00000F082F87B6800221A77BB681022134026
:1042F00022D0FB68102213401ED07B681B6811225D
:1043000052421A617B6808221A777B681B68DA6957
:10431000C0239B00134004D07B68180000F05CF8B9
:1043200007E07B68180000F04FF87B68180000F089
:104330005BF87B6800221A77BB68012213400CD01F
:10434000FB680122134008D07B681B68022252429E
:104350001A617B681800FCF745FABB68802213409D
:104360000CD0FB688022134008D07B681B68812238
:1043700052421A617B68180000F0D2F8BB684022F4
:1043800013400CD0FB684022134008D07B681B68A8
:10439000412252421A617B68180000F02DF8BB6878
:1043A000202213400CD0FB682022134008D07B68E9
:1043B0001B68212252421A617B68180000F0A8F89D
:1043C000C046BD4604B080BD80B582B000AF786005
:1043D000C046BD4602B080BD80B582B000AF7860F7
:1043E000C046BD4602B080BD80B582B000AF7860E7
:1043F000C046BD4602B080BD80B582B000AF7860D7
:10440000C046BD4602B080BD80B584B000AF7860C4
:1044100039607B681B68FB607B68374A934208D031
:104420007A688023DB059A4203D07B68334A934243
:1044300008D1FB6870229343FB603B685B68FA68B5
:104440001343FB607B682C4A934214D07A68802324
:10445000DB059A420FD07B68284A93420BD07B68D9
:10446000274A934207D07B68264A934203D07B6851
:10447000254A934208D1FB68244A1340FB603B68FD
:10448000DB68FA681343FB60FB68802293431A00E1
:104490003B685B691343FB607B68FA681A603B68A2
:1044A0009A687B68DA623B681A687B689A627B6804
:1044B000114A934207D07B68124A934203D07B682B
:1044C000114A934203D13B681A697B681A637B687F
:1044D00001225A617B681B6901221340012B06D11E
:1044E0007B681B69012293431A007B681A61C046EE
:1044F000BD4604B080BDC046002C01400004004011
:10450000002000400044014000480140FFFCFFFF44
:1045100080B582B000AF7860C046BD4602B080BDB5
:1045200080B582B000AF7860C046BD4602B080BDA5
:1045300080B582B000AF78607B68002B01D1012389
:1045400044E07B68DB6F002B07D17B687822002179
:1045500099547B681800FCF773FB7B682422DA67A8
:104560007B681B681A687B681B6801218A431A6094
:104570007B685B6A002B03D07B68180000F0EAFDC3
:104580007B68180000F0A6FC0300012B01D1012379
:104590001CE07B681B685A687B681B680D490A40F1
:1045A0005A607B681B689A687B681B682A218A436B
:1045B0009A607B681B681A687B681B6801210A4344
:1045C0001A607B68180000F079FE03001800BD46F1
:1045D00002B080BDFFB7FFFF80B58AB002AFF860C0
:1045E000B9603B60BB1D1A80FB68DB6F202B00D0DD
:1045F0008CE0BB68002B03D0BB1D1B88002B01D1B6
:10460000012384E0FB689A6880235B019A4209D108
:10461000FB681B69002B05D1BB680122134001D048
:10462000012374E0FB68842200219950FB68212259
:10463000DA67FCF7E3FC03007B61FB68BA1D5021DD
:1046400012885A52FB68BA1D522112885A52FB68CE
:104650009A6880235B019A4208D1FB681B69002B92
:1046600004D10023FB61BB68BB6103E0BB68FB6155
:104670000023BB612FE07A69F8683B680093130060
:104680000022802100F0C2FE031E04D0FB6820221D
:10469000DA6703233BE0FB69002B0BD1BB691A8867
:1046A000FB681B68D205D20D92B21A85BB69023332
:1046B000BB6107E0FB691A78FB681B681A85FB6918
:1046C0000133FB61FB6852229B5A9BB2013B99B2BA
:1046D000FB6852229952FB6852229B5A9BB2002BD4
:1046E000C9D17A69F8683B68009313000022402121
:1046F00000F08CFE031E04D0FB682022DA6703233F
:1047000005E0FB682022DA67002300E0022318009E
:10471000BD4608B080BD80B588B000AFF860B96014
:10472000BB1D1A80FB6880229B58202B45D1BB689B
:10473000002B03D0BB1D1B88002B01D101233DE0C2
:10474000FB689A6880235B019A4209D1FB681B6968
:10475000002B05D1BB680122134001D001232DE0BD
:10476000FB6800221A66FB681B685A6880231B04DA
:10477000134019D0EFF310833B613B69FB610123C8
:104780007B617B6983F31088C046FB681B681A68ED
:10479000FB681B688021C9040A431A60FB69BB617E
:1047A000BB6983F31088C046BB1D1A88B968FB68D3
:1047B000180000F09BFE030000E002231800BD4635
:1047C00008B080BD80B58CB000AF78607B68DB6FCF
:1047D000FB627B6880229B58BB627B681B689B687E
:1047E00080221340802B38D1FB6A212B35D1EFF387
:1047F00010837B617B697B620123BB61BB6983F3AF
:104800001088C0467B681B689A687B681B6880219B
:104810008A439A607B6AFB61FB6983F31088C04618
:104820007B681B6F002B14D07B681B6F1800FCF794
:104830006FFD031E0DD07B681B6F1800FCF793FE05
:104840000300202B05D17B6884221021995003237B
:1048500044E07B68180000F0E9FE7B681B689B68F9
:1048600040221340402B38D1BB6A222B35D1EFF3C5
:104870001083BB60BB683B620123FB60FB6883F372
:104880001088C0467B681B689A687B681B6840215B
:104890008A439A603B6A3B613B6983F31088C04658
:1048A0007B685B6F002B14D07B685B6F1800FCF794
:1048B0002FFD031E0DD07B685B6F1800FCF753FEC5
:1048C0000300202B05D17B688422102199500323FB
:1048D00004E07B68180000F0CDFE00231800BD4600
:1048E0000CB080BD90B5ABB000AF78607B681B6842
:1048F000DB69A422B9180B607B681B681B68A020C9
:1049000039180B607B681B689B689C2179180B60C9
:104910001100BB181B68994A13409822BC182360E9
:10492000BB181B68002B14D17B181B682022134076
:104930000FD03B181B68202213400AD07B689B6E67
:10494000002B00D19EE27B689B6E7A68100098472E
:1049500098E29823FB181B68002B00D114E19C23DC
:10496000FB181B680122134006D1A023FB181B680B
:10497000834A134000D107E1A423FB181B680122DE
:10498000134012D0A023FB181A6880235B00134049
:104990000BD07B681B6801221A627B6884229B58BB
:1049A00001221A437B6884215A50A423FB181B68F8
:1049B0000222134011D09C23FB181B6801221340D4
:1049C0000BD07B681B6802221A627B6884229B588A
:1049D00004221A437B6884215A50A423FB181B68C5
:1049E0000422134011D09C23FB181B6801221340A2
:1049F0000BD07B681B6804221A627B6884229B5858
:104A000002221A437B6884215A50A423FB181B6896
:104A10000822134017D0A023FB181B682022134044
:104A200005D19C23FB181B68012213400BD07B6827
:104A30001B6808221A627B6884229B5808221A434A
:104A40007B6884215A50A423FB181A6880231B0119
:104A5000134013D0A023FB181A688023DB041340F3
:104A60000CD07B681B68802212011A627B6884224A
:104A70009B5820221A437B6884215A507B688422E9
:104A80009B58002B00D1FFE1A423FB181B682022B8
:104A900013400ED0A023FB181B682022134008D01F
:104AA0007B689B6E002B04D07B689B6E7A6810003D
:104AB00098477B6884229B5894217A1813607B68FE
:104AC0001B689B6840221340402B04D07B181B6856
:104AD0002822134047D07B68180000F0CBFD7B688C
:104AE0001B689B6840221340402B37D1EFF31083A3
:104AF0003B663B6E90203A18136001237B667B6E09
:104B000083F31088C0467B681B689A687B681B68C3
:104B100040218A439A603B181B68BB66BB6E83F3D7
:104B20001088C0467B685B6F002B12D07B685B6F80
:104B3000144A5A637B685B6F1800FCF721FC031E64
:104B40001AD07B685B6F5A6B7B685B6F180090476D
:104B500012E07B68180000F0B5F90DE07B681800E2
:104B600000F0B0F908E07B68180000F0ABF97B6852
:104B700084220021995087E1C04685E10F0800009A
:104B8000200100042F5900087B681B6E012B00D008
:104B900039E1A423FB181B681022134000D132E135
:104BA000A023FB181B681022134000D12BE17B6867
:104BB0001B6810221A627B681B689B6840221340A6
:104BC000402B00D09FE07B685B6F1B685A687E219A
:104BD0007B181A807B181B88002B00D156E17B685C
:104BE00058229B5A7A1812889A4200D34EE17B6869
:104BF0007A185A2112885A527B685B6F9B69202B66
:104C00006FD0EFF310833B633B6BBB6701237B6388
:104C10007B6B83F31088C0467B681B681A687B68CF
:104C20001B689E490A401A60BB6FBB63BB6B83F372
:104C30001088C046EFF31083FB63FB6B7B67012397
:104C40003B643B6C83F31088C0467B681B689A68A2
:104C50007B681B6801218A439A607B6F7B647B6C55
:104C600083F31088C046EFF31083BB64BB6C3B67D3
:104C70000123FB64FB6C83F31088C0467B681B68D0
:104C80009A687B681B6840218A439A603B6F3B654A
:104C90003B6D83F31088C0467B68802220219950A9
:104CA0007B6800221A66EFF310837B657B6DFB66E1
:104CB0000123BB65BB6D83F31088C0467B681B680E
:104CC0001A687B681B6810218A431A60FB6EFB65BB
:104CD000FB6D83F31088C0467B685B6F1800FCF7A0
:104CE00017FB7B6802225A667B6858229A5A7B68B7
:104CF0005A215B5A9BB2D31A9AB27B6811001800F2
:104D0000FBF728FCC2E07B685822995A7B685A223C
:104D10009B5A9AB28E203B188A1A1A807B685A22B4
:104D20009B5A9BB2002B00D1B2E03B181B88002B92
:104D300000D1ADE0EFF31083FB60FB6888243A19E3
:104D4000136001233B613B6983F31088C0467B6895
:104D50001B681A687B681B6851490A401A603B1936
:104D60001B687B617B6983F31088C046EFF3108377
:104D7000BB61BB6984243A1913600123FB61FB69A1
:104D800083F31088C0467B681B689A687B681B6841
:104D900001218A439A603B191B683B623B6A83F39B
:104DA0001088C0467B688022202199507B680022B1
:104DB0001A667B6800229A66EFF310837B627B6A37
:104DC00080243A1913600123BB62BB6A83F3108805
:104DD000C0467B681B681A687B681B6810218A4381
:104DE0001A603B191B68FB62FB6A83F31088C0469C
:104DF0007B6802225A663B181A887B6811001800EB
:104E0000FBF7A8FB44E0A423FB181A6880235B038C
:104E1000134010D09C23FB181A688023DB03134037
:104E200009D07B681B68802252031A627B681800D5
:104E300000F0BFFD2FE0A423FB181B688022134065
:104E40000FD0A023FB181B688022134009D07B6879
:104E5000DB6E002B1ED07B68DB6E7A6810009847F3
:104E600018E0A423FB181B684022134013D0A02392
:104E7000FB181B68402213400DD07B68180000F01F
:104E80006DFD08E0C04606E0C04604E0C04602E012
:104E9000C04600E0C046BD462BB090BDFFFEFFFF00
:104EA000DFFEFFFF80B582B000AF7860C046BD4630
:104EB00002B080BD80B582B000AF7860C046BD460C
:104EC00002B080BD80B582B000AF7860C046BD46FC
:104ED00002B080BD80B588B000AF78601E23FB189B
:104EE00000221A707B689A687B681B691A437B688A
:104EF0005B691A437B68DB6913437B617B681B68D2
:104F00001B688D4A134019007B681B687A690A4345
:104F10001A607B681B685B68884A134019007B68CD
:104F2000DA687B681B680A435A607B689B697B610F
:104F30007B681B6A7A6913437B617B681B689B688B
:104F40007F4A134019007B681B687A690A439A609C
:104F50007B681B687B4A934227D17B4B1B6B0322E8
:104F60001340032B0DD01BD8022B14D018D8002BC4
:104F700002D0012B0AD013E01F23FB1800221A7065
:104F800021E01F23FB1802221A701CE01F23FB18CC
:104F900004221A7017E01F23FB1808221A7012E06F
:104FA0001F23FB1810221A700DE07B681B68674AEC
:104FB000934204D11F23FB1800221A7003E01F2321
:104FC000FB1810221A707B68DA6980231B029A4250
:104FD0005CD11F23FB181B78082B15D018DC042B81
:104FE0000DD015DC002B02D0022B05D010E0FEF70F
:104FF0002BFF0300BB6112E0554BBB610FE0FEF7D6
:10500000A7FE0300BB610AE080231B02BB6106E030
:105010000023BB611E23FB1801221A70C046BB6926
:10502000002B00D17AE0BB695A007B685B685B08A3
:10503000D2187B685B6819001000FBF76FF803005B
:105040003B613B690F2B1CD93A6980235B029A4272
:1050500017D23B699AB20E203B180F218A431A805F
:105060003B695B089BB20722134099B23B183A1880
:1050700012880A431A807B681B683A181288DA6023
:105080004CE01E23FB1801221A7047E01F23FB1877
:105090001B78082B15D018DC042B0DD015DC002B49
:1050A00002D0022B05D010E0FEF7CEFE0300BB615C
:1050B00012E0274BBB610FE0FEF74AFE0300BB6125
:1050C0000AE080231B02BB6106E00023BB611E23B4
:1050D000FB1801221A70C046BB69002B1ED07B68EA
:1050E0005B685A08BB69D2187B685B6819001000BE
:1050F000FBF714F803003B613B690F2B0AD93A69AF
:1051000080235B029A4205D23B699AB27B681B6896
:10511000DA6003E01E23FB1801221A707B6800226C
:105120009A667B680022DA661E23FB181B7818003B
:10513000BD4608B080BDC046F369FFEFFFCFFFFF5B
:10514000FFF4FFFF0038014000100240004400401F
:1051500000127A0080B582B000AF78607B685B6A2D
:10516000082213400BD07B681B685B684A4A1340D7
:1051700019007B685A6B7B681B680A435A607B681E
:105180005B6A012213400BD07B681B685B68434A53
:10519000134019007B689A6A7B681B680A435A604F
:1051A0007B685B6A022213400BD07B681B685B68DC
:1051B0003B4A134019007B68DA6A7B681B680A4324
:1051C0005A607B685B6A042213400BD07B681B68C3
:1051D0005B68344A134019007B681A6B7B681B6854
:1051E0000A435A607B685B6A102213400BD07B68CD
:1051F0001B689B682C4A134019007B689A6B7B687C
:105200001B680A439A607B685B6A202213400BD0BC
:105210007B681B689B68254A134019007B68DA6B22
:105220007B681B680A439A607B685B6A4022134074
:105230001DD07B681B685B681D4A134019007B68A2
:105240001A6C7B681B680A435A607B681A6C80235F
:105250005B039A420BD17B681B685B68154A13405D
:1052600019007B685A6C7B681B680A435A607B682C
:105270005B6A802213400BD07B681B685B680E4A18
:10528000134019007B689A6C7B681B680A435A605C
:10529000C046BD4602B080BDFF7FFFFFFFFFFDFFA0
:1052A000FFFFFEFFFFFFFBFFFFEFFFFFFFDFFFFF43
:1052B000FFFFEFFFFFFF9FFFFFFFF7FF80B592B0FB
:1052C00002AF78607B68842200219950FBF796FE3C
:1052D0000300FB637B681B681B6808221340082BD4
:1052E0002CD1FB6B802291037868464A0092002201
:1052F00000F08CF8031E21D0EFF310837B627B6AF1
:10530000BB630123BB62BB6A83F31088C0467B6822
:105310001B681A687B681B6880218A431A60BB6B14
:10532000FB62FB6A83F31088C0467B682022DA6741
:105330007B6878220021995403235FE07B681B6817
:105340001B6804221340042B46D1FB6B8022D1033F
:1053500078682C4A0092002200F058F8031E3BD0D7
:10536000EFF31083FB60FB687B6301233B613B69C8
:1053700083F31088C0467B681B681A687B681B68CB
:1053800021490A401A607B6B7B617B6983F310883B
:10539000C046EFF31083BB61BB693B630123FB6134
:1053A000FB6983F31088C0467B681B689A687B683A
:1053B0001B6801218A439A603B6B3B623B6A83F323
:1053C0001088C0467B688022202199507B68782213
:1053D00000219954032311E07B682022DA677B685F
:1053E0008022202199507B6800221A667B68002267
:1053F0005A667B6878220021995400231800BD4624
:1054000010B080BDFFFFFF01DFFEFFFF80B584B05D
:1054100000AFF860B9603B60FB1D1A7051E0BB69DA
:1054200001334ED0FBF7EAFD02003B68D31ABA699C
:105430009A4202D3BB69002B01D1032351E0FB68E0
:105440001B681B68042213403BD0BB68802B38D0FC
:10545000BB68402B35D0FB681B68DB690822134012
:10546000082B11D1FB681B6808221A62FB68180020
:1054700000F000F9FB68842208219950FB6878222B
:105480000021995401232CE0FB681B68DA69802312
:105490001B011A4080231B019A4212D1FB681B6832
:1054A000802212011A62FB68180000F0E3F8FB6822
:1054B000842220219950FB687822002199540323EB
:1054C0000FE0FB681B68DB69BA681340BA68D31A3F
:1054D0005A425341DBB21A00FB1D1B789A429ED000
:1054E00000231800BD4604B080BD000080B590B018
:1054F00000AFF860B960BB1D1A80FB68BA685A65D6
:10550000FB68BA1D582112885A52FB688422002178
:105510009950FB68802222219950FB685B6F002B19
:1055200028D0FB685B6F3E4A9A62FB685B6F3D4A1E
:10553000DA62FB685B6F3C4A1A63FB685B6F0022B0
:105540005A63FB68586FFB681B6824331900FB68BB
:105550005B6D1A00BB1D1B88FBF774FE031E09D090
:10556000FB68842210219950FB68802220219950E9
:10557000012350E0FB681B69002B19D0EFF3108367
:10558000BB62BB6AFB630123FB62FB6A83F3108887
:10559000C046FB681B681A68FB681B6880214900CD
:1055A0000A431A60FB6B3B633B6B83F31088C04676
:1055B000EFF310833B613B69BB6301237B617B6934
:1055C00083F31088C046FB681B689A68FB681B68F9
:1055D00001210A439A60BB6BBB61BB6983F31088EE
:1055E000C046EFF31083FB61FB697B6301233B62E1
:1055F0003B6A83F31088C046FB681B689A68FB68A7
:105600001B6840210A439A607B6B7B627B6A83F351
:105610001088C04600231800BD4610B080BDC046AB
:105620003D57000869580008AB58000880B586B09F
:1056300000AF7860EFF31083BB60BB687B61012330
:10564000FB60FB6883F31088C0467B681B681A68A0
:105650007B681B68C0218A431A607B693B613B6998
:1056600083F31088C0467B682022DA67C046BD46B7
:1056700006B080BD80B58EB000AF7860EFF31083C8
:105680007B617B697B630123BB61BB6983F310880A
:10569000C0467B681B681A687B681B6826490A40FD
:1056A0001A607B6BFB61FB6983F31088C046EFF3E4
:1056B00010833B623B6A3B6301237B627B6A83F31B
:1056C0001088C0467B681B689A687B681B6801214C
:1056D0008A439A603B6BBB62BB6A83F31088C04607
:1056E0007B681B6E012B18D1EFF31083BB60BB6886
:1056F000FB620123FB60FB6883F31088C0467B6874
:105700001B681A687B681B6810218A431A60FB6A51
:105710003B613B6983F31088C0467B68802220216F
:1057200099507B6800221A667B6800229A66C04600
:10573000BD460EB080BDC046DFFEFFFF80B594B011
:1057400000AF78607B685B6AFB647B689B69202B99
:105750006FD0FB6C5A2200219952EFF31083BB618A
:10576000BB69BB640123FB61FB6983F31088C046FE
:10577000FB6C1B681A68FB6C1B683A490A401A608C
:10578000BB6C3B623B6A83F31088C046EFF3108327
:105790007B627B6A7B640123BB62BB6A83F31088F4
:1057A000C046FB6C1B689A68FB6C1B6801218A432E
:1057B0009A607B6CFB62FB6A83F31088C046EFF350
:1057C00010833B633B6B3B6401237B637B6B83F305
:1057D0001088C046FB6C1B689A68FB6C1B684021F4
:1057E0008A439A603B6CBB63BB6B83F31088C046F3
:1057F000FB6C802220219950FB6C1B6E012B18D171
:10580000EFF31083FB60FB68FB6301233B613B69A3
:1058100083F31088C046FB6C1B681A68FB6C1B681E
:1058200010218A431A60FB6B7B617B6983F31088CC
:10583000C046FB6C00225A66FB6C1B6E012B08D124
:10584000FB6C58229A5AFB6C11001800FAF782FE82
:1058500003E0FB6C1800FAF7E9FDC046BD4614B042
:1058600080BDC046FFFEFFFF80B584B000AF78600A
:105870007B685B6AFB60FB6801225A66FB681B6EF3
:10588000012B0AD1FB6858229B5A5B089AB2FB682D
:1058900011001800FAF75EFE03E0FB681800FFF73E
:1058A00009FBC046BD4604B080BD80B586B000AFE0
:1058B00078607B685B6A7B617B69DB6F3B617B69DE
:1058C00080229B58FB607B691B689B688022134089
:1058D000802B0AD13B69212B07D17B695222002101
:1058E00099527B691800FFF7A1FE7B691B689B68D2
:1058F00040221340402B0AD1FB68222B07D17B6941
:105900005A22002199527B691800FFF7B3FE7B6988
:1059100084229B5810221A437B6984215A507B6948
:105920001800FFF7CFFAC046BD4606B080BD80B56F
:1059300084B000AF78607B685B6AFB60FB685A22CA
:1059400000219952FB68522200219952FB681800ED
:10595000FFF7B8FAC046BD4604B080BD80B586B03A
:1059600000AF7860EFF31083BB60BB687B610123FD
:10597000FB60FB6883F31088C0467B681B681A686D
:105980007B681B6840218A431A607B693B613B69E5
:1059900083F31088C0467B682022DA677B68002288
:1059A000DA667B681800FFF77DFAC046BD4606B090
:1059B00080BD80B582B000AF7860C046BD4602B001
:1059C00080BDB0B58AB000AFF860B960BB1D1A8069
:1059D000FB6880229B58202B56D1BB68002B03D03C
:1059E000BB1D1B88002B01D101234EE0FB689A6888
:1059F00080235B019A4209D1FB681B69002B05D10A
:105A0000BB680122134001D001233EE0FB68012264
:105A10001A66FB6800225A6627257C19BB1D1A8866
:105A2000B968FB681800FFF761FD030023707B195C
:105A30001B78002B24D1FB681B6E012B1CD1FB684B
:105A40001B6810221A62EFF310837B617B693B6253
:105A50000123BB61BB6983F31088C046FB681B68E8
:105A60001A68FB681B6810210A431A603B6AFB61D5
:105A7000FB6983F3108803E02723FB1801221A70C7
:105A80002723FB181B7800E002231800BD460AB04C
:105A9000B0BD0000002310B50400036043608360C4
:105AA00081814366C28103614361836119000822D9
:105AB0005C3000F00FFA0B4B246263620A4BA36266
:105AC0000A4BE3620A4B23630A4B9C4205D00A4B04
:105AD0009C4202D0094B9C4203D12000583000F078
