:020000040800F2
:10000000001800208D060008450500084705000877
:1000100000000000000000000000000000000000E0
:10002000000000000000000000000000490500087A
:1000300000000000000000004B0500084D0500080E
:100040000D0700080D0700080D0700080D07000840
:100050000D0700080D0700080D0700080D07000830
:100060000D0700080D0700080D0700080D07000820
:100070000D070008510500080D0700080D070008CE
:100080000D07000800000000000000000D07000838
:10009000000000000D0700080D0700080D0700080C
:1000A000000000000D0700080D0700080D070008FC
:1000B0000D070008000000000D0700080D070008EC
:1000C00010B5064C2378002B07D1054B002B02D02E
:1000D000044800E000BF0123237010BD6800002029
:1000E00000000000442F0008044B10B5002B03D083
:1000F0000349044800E000BF10BDC04600000000F6
:100100006C000020442F000802B4714649084900E1
:10011000095C49008E4402BC7047C04603B4714676
:10012000490840004900095E49008E4403BC7047FD
:10013000002243088B4274D303098B425FD3030A26
:100140008B4244D3030B8B4228D3030C8B420DD339
:10015000FF22090212BA030C8B4202D312120902C7
:1001600065D0030B8B4219D300E0090AC30B8B4205
:1001700001D3CB03C01A5241830B8B4201D38B03B3
:10018000C01A5241430B8B4201D34B03C01A524158
:10019000030B8B4201D30B03C01A5241C30A8B429B
:1001A00001D3CB02C01A5241830A8B4201D38B0286
:1001B000C01A5241430A8B4201D34B02C01A52412A
:1001C000030A8B4201D30B02C01A5241CDD2C3099C
:1001D0008B4201D3CB01C01A524183098B4201D318
:1001E0008B01C01A524143098B4201D34B01C01A03
:1001F000524103098B4201D30B01C01A5241C3087B
:100200008B4201D3CB00C01A524183088B4201D3E9
:100210008B00C01A524143088B4201D34B00C01AD5
:100220005241411A00D20146524110467047FFE741
:1002300001B5002000F006F802BDC0460029F7D045
:1002400076E770477047C04680210F4BC9035A6953
:1002500084B00A435A615A690A4080210192019A86
:100260005A6989020A435A615A690A4080210292F6
:10027000029A5A69C9020A435A615B690B400393A7
:10028000039B04B07047C0460010024010B5134BEA
:10029000134C01222360134B200063600023E260B3
:1002A000A36023616361A361E361236200F0A2FCA8
:1002B000002801D000F0DCF80021200000F0B0FEA2
:1002C000002801D000F0D4F80021200000F0CEFE7C
:1002D000002801D000F0CCF810BDC046005400400A
:1002E000840000200E09002010B5040088B01422FC
:1002F000002103A802F084F8144B22689A4222D10C
:100300008022134C920263699020134363616369F6
:1003100003A913400193019BC023DB000393122325
:100320000493113B059302330693C00501330793F1
:1003300000F07CFA8022E36992031343E361E369EE
:1003400013400293029B08B010BDC0460054004009
:100350000010024007B5044B01900122034801A997
:1003600001F036FD01980EBDFFFF000024010020C2
:1003700010B5102498B0302200210CA802F040F8EB
:100380002200002101A802F03BF80021182205A854
:1003900002F036F802230BA80B93013B0E930F9447
:1003A00000F088FE011E01D072B6FEE7072302901E
:1003B0000390049001A8019301F002F9002801D0F4
:1003C00072B6FEE721230790089005A8059301F077
:1003D000ADF9002801D072B6FEE718B010BD0000DC
:1003E00013B56A46184B1B78137100F0B5F9FFF787
:1003F000BFFF642000F0D2F9FFF726FFFFF746FFAA
:1004000000F0F6F8114801F005FFFA20800000F036
:10041000C5F93321002000F07BF904000C4801F0FD
:1004200093FE0A2000F0BAF90A4801F08DFE002C74
:1004300003D1200001A900F07FF96B460648197925
:1004400001F082FEE5E7C046962F00085C2F000809
:10045000702F00087E2F0008882F0008034B0268C9
:1004600010B59A4201D100F087F910BD002C01406F
:1004700072B6FEE701210A4B82B09A690A439A617B
:100480009A690A4080210092009ADA6949050A4374
:10049000DA61DB690B400193019B02B07047C046F3
:1004A000001002408021214B70B59A6909010A436E
:1004B0009A619B6986B00B4001930500694602A8CA
:1004C000019B01F017F9059B002B28D101F002F9DF
:1004D000174E184B18493360184BF360FFF728FE8E
:1004E00000230138706030003361B360B36101F004
:1004F000CFFA041E10D1300001F0B2F9041E0BD166
:100500000D2000F087F9032D0DD8220029000D20C1
:1005100000F056F90A4B1D60200006B070BD01F0D6
:10052000D9F84000D4E70124F6E7C04600100240A5
:10053000D8000020002C014040420F00E7030000DB
:1005400008000020FEE7FEE7704770477047000094
:1005500010B5024801F0B2F910BDC046D800002025
:1005600070B50E0014000025A54201DB200070BD0F
:1005700000E000BF70550135F6E770B50E001400BD
:100580000025A54201DB200070BD705DFFF7E2FE93
:100590000135F6E701204042704780239B0100208F
:1005A0004B60704701207047002070470B490C4A90
:1005B0000300521A0B4910B50868002801D10A48F7
:1005C00008600868C318934206D901F06FFF0C2336
:1005D00003600120404210BD0B60FCE700040000F6
:1005E00000180020200100200003002070470000B8
:1005F0000B480C4B10B50360E1235B020C224360F7
:10060000002342618360C36003618361C36103624D
:10061000436201F0A3FC002801D0FFF729FF10BDC1
:10062000240100200038014010B5040088B01422D5
:10063000002103A801F0E4FE114B22689A421CD16C
:100640008021104BC9019A690F480A439A619A693F
:100650000A4080210192019A5A69C9020A435A61EB
:100660005B690B400293029BC0230393BE3B049340
:1006700003A90133069300F0D9F808B010BDC046B5
:10068000003801400010024000040048134885462D
:10069000FFF7ACFF12480168090E124A914205D1DA
:1006A0001148124901601248124901601248134969
:1006B000134A002302E0D458C4500433C4188C42B7
:1006C000F9D3104A104C002301E013600432A24217
:1006D000FBD301F0F1FEFFF783FEFEE700180020D8
:1006E000040000001F00000018100240010000007C
:1006F0000000014000000000000000206800002011
:100700001030000868000020FC020020FEE7000016
:1007100002001720C82310B586B06844054C01704C
:100720000293C73B0090AE212000019300F0C0FA75
:1007300006B010BD840000201FB5C823054C0293ED
:10074000C73B020000912000AE21019300F08AFB1C
:1007500004B010BD840000201023064A10B51168B3
:1007600003200B431360FFF79DFEFFF783FE00207D
:1007700010BDC04600200240034A044B11681B789C
:100780005B1813607047C046AC01002004000020D5
:10079000014B18687047C046AC01002070B50400DA
:1007A000FFF7F6FF0500631C02D0044B1B78E4182A
:1007B000FFF7EEFF401BA042FAD370BD04000020FB
:1007C00010B5FF2403220B0021000240D20091400B
:1007D0009B012340C943934000280ADBC0240B4AF5
:1007E000800880008018A40002590A401343035176
:1007F00010BD0F2210400838054A8008800080187C
:10080000C26911401943C161F2E7C04600E100E04E
:1008100000ED00E0002805DB1F2318401E3B83404D
:10082000014A13607047C04600E100E00023F0B5C4
:1008300087B00A681400DC4001D107B0F0BD012583
:1008400014009D402C4000942A4200D194E04A6854
:100850005F0094460322644622400324BC40E443E4
:100860000194541E012C2ED88668019C2640CC6829
:10087000BC403443846044680126AC432500644690
:10088000240934409C402C434460C568019C2540A9
:100890008C68BC402C43C460022A16D107250F2661
:1008A0001D40AD00AE40DC08A40004190294246A87
:1008B00003962600039CA64334000E69AE402643EF
:1008C000029C266201E0032ADFD1BA400468019D40
:1008D00025402A43C02402606246A40222424BD033
:1008E0000125264A90279469FF052C43946192695B
:1008F0009C082A400592059A214AA400A4180F22B8
:1009000002351D40AD00AA40A66896430022B842B9
:1009100008D01C4F0132B84204D01B4F0432B842F9
:1009200000D1033AAA4067463243A260174A009CAE
:100930009668009DE4433543FF0201D4350025400D
:1009400067469560D668009D3543BF0201D43500E7
:1009500025406746D5605668009D3543BF0301D4E6
:1009600035002540674655601568009E2E43FF03FD
:1009700001D425402E00166001335AE700100240D2
:100980000000014000040048000800480004014045
:1009900003689A69920701D500229A620122996937
:1009A000114202D199690A439A61704730B5039C9C
:1009B00000682343120489051A43890D054B4568D5
:1009C0000A43640D234352009D4352082A43426068
:1009D00030BDC046FF63FF03F7B5150002680E0087
:1009E000916910230F0004001F40002019420DD010
:1009F0000700D3610190236820219A690A425FD1E0
:100A0000002F31D004270120019B1F43802225683D
:100A10005200AB69134202D00120EA6107438022F1
:100A2000D200134203D0082101200F43EA61802243
:100A30009200134249D00223EA611F432000FFF7CE
:100A4000A7FF6B68224A012013406B60636C202271
:100A50003B436364230041331A7022000023423277
:100A600040341370237032E0721CC5D0FFF790FE43
:100A7000401BB04201D8002EBDD122002368423273
:100A8000586811789A69C9B212040BD58022D20134
:100A9000104207D1202905D059680A435A60FFF750
:100AA00077FE0500202223689B691342A3D1FFF73C
:100AB0006FFE401B1928F5D92023012701939AE7DF
:100AC000002F9FD12022DA619CE70028B6D1FEBD1D
:100AD00000E800FEF8B504000D00160002272368A8
:100AE0009B693B4201D0002021E032002900200018
:100AF000FFF772FF002819D16B1CF0D0FFF748FEFA
:100B0000801BA84201D8002DE9D1236899690223EE
:100B10000A001A401942E2D12021636C0B4363643E
:100B200023004034413319705A7022700120F8BDFF
:100B3000F8B504000D0017001E0023689B692B40C8
:100B40005B1B5A425341BB4201D0002026E03100DA
:100B50002000069AFFF740FF00281ED1731CECD03E
:100B6000FFF716FE069BC01AB04201D8002EE4D152
:100B700023689B692B405B1B5A425341BB42DCD12B
:100B80002022636C13436364230041331A702200F4
:100B9000002342324034137023700120F8BDF8B5B1
:100BA00004000E001700202523689B692B4201D00A
:100BB00000201DE03A0031002000FFF70DFF002863
:100BC00015D1FFF7E5FDC01BB04201D8002EEBD1D7
:100BD00023689B691A002A402B42E5D1636C2B43A2
:100BE00063642300403441331D705A702270012029
:100BF000F8BD000070B504000120002C4ED0250087
:100C000041352B78DAB2002B05D123004033200088
:100C10001A70FFF769FB242301212B702368E06819
:100C20001A68A6688A431A601D4962680A401A61F8
:100C30009A681C490A409A60012807D18022120252
:100C400032439A605A681848024009E0842212022E
:100C500032439A600228F5D180225868120102437B
:100C60005A605868114A02435A60DA6800200A4004
:100C7000DA60616922690A43A16909020A43DA60FC
:100C8000216AE2690A431A60012219680A431A605C
:100C9000202360642B7020634234207070BDC046F6
:100CA000FFFFFFF0FF7FFFFFFFF7FFFF0080000265
:100CB000F0B5070087B003930CAB029204CB413729
:100CC0001B88049205933B7804000E000220202B21
:100CD00008D1002A02D0059B002B05D180239B0060
:100CE0006364012007B0F0BD230040331A7802206E
:100CF000012AF7D001221A70FFF74AFD8021050072
:100D000000901923012220000902FFF711FF00289B
:100D1000E7D121233B7027001F3342373B70049BF0
:100D200060646362059B606363856B461A7B4B4B13
:100D300031000093802320005B04FFF737FE2A0078
:100D400020000E99FFF7C6FE002829D1039A2368D8
:100D5000012A16D16A46127A9A6200228021200066
:100D60000E9B0095FFF7E4FE002819D1638DFF2B41
:100D70001AD88023628D9B0492B22285D2B2009051
:100D800017E0029A2000120A9A620E992A00FFF7D1
:100D9000A1FE002804D16B4622681B7A9362DCE72F
:100DA0000023403423709CE7FF22802322855B04CC
:100DB000009031002000FFF7F9FD2A0020000E9975
:100DC000FFF788FE002800D08BE7636A2268197855
:100DD000013391626362638D228D013B9BB2638517
:100DE000013A638D92B22285002B16D0002A14D1CD
:100DF000802120000E9B0095FFF79AFE002800D06E
:100E00006FE7638DFF2B21D9FF22802322855B04AE
:100E1000009031002000FFF7C9FD638D002BCCD17D
:100E20002A0020000E99FFF7BAFE002800D058E7EC
:100E3000202123680A4DD9615A682A405A6023004C
:100E4000403441331970387020704BE78023628D35
:100E50009B0492B22285D2B20090DAE70020008093
:100E600000E800FEF0B5060087B003930CAB0292D9
:100E700004CB41361B8804920593337804000F009D
:100E80000220202B08D1002A02D0059B002B05D17F
:100E900080239B006364012007B0F0BD2300403332
:100EA0001A780220012AF7D001221A70FFF770FC8D
:100EB0008021192300900500012220000902FFF77C
:100EC00037FE031EE7D12222327026001E32423640
:100ED0003270049A60646262059A4E4962856A467D
:100EE0006063127B200000913900FFF75FFD2A004C
:100EF00020000E99FFF7EEFD00282AD1039A2368FF
:100F0000012A17D16A46127A9A62002240212000F3
:100F10000E9B0095FFF70CFE00281AD1628D3E4B08
:100F2000FF2A1AD8628D92B2228500938023D2B212
:100F30009B0417E0029A2000120A9A620E992A0076
:100F4000FFF7C8FD002804D16B4622681B7A936224
:100F5000DBE70023403423709DE7012222850093C4
:100F600080235B0439002000FFF720FD00220421CC
:100F700020000E9B0095FFF7DBFD002800D08AE7DC
:100F800023685A6A636A1A70636A228D0133636246
:100F9000638D013A013B9BB26385638D92B22285DA
:100FA000002B16D0002A14D1802120000E9B009522
:100FB000FFF7BEFD002800D06DE7638DFF2B21D920
:100FC0000122802322855B04009039002000FFF776
:100FD000EDFC638D002BC9D12A0020000E99FFF78C
:100FE000DEFD002800D056E7202123680B4DD96193
:100FF0005A682A405A6023004034413319703070D7
:10100000207049E78023628D9B0492B22285D2B280
:101010000090DAE7002000800024008000E800FE55
:10102000F0B504004134227803000F000220D6B24C
:10103000202A18D11D0040352A78012A13D02422F5
:1010400022701B68233A1968074891431960196890
:1010500001400020196019683943196019680A4372
:101060001A6026702870F0BDFFEFFFFF0200F0B598
:10107000413214780300E5B20220202C17D11C0065
:1010800040342678012E12D0223010701B6823388D
:101090001E68074F86431E601E6809023E403143AA
:1010A0001960196808431860002015702070F0BDA1
:1010B000FFF0FFFFF0B5040085B0002802D1012049
:1010C00005B0F0BD0368DB0733D423689B0700D568
:1010D00087E023681B0700D5C8E023685B0700D5BD
:1010E000EBE02368DB061AD562690423B94D012AB7
:1010F00000D054E1696B02270B436B636B6B1A439F
:101100006A63FFF745FB06006B6B3B4200D13FE192
:10111000F8216A6BA3698A43DB0013436B6323687E
:101120009B0600D562E1636A002B00D0A1E100209C
:10113000C6E70C22A74D6B681340042B0BD06B68DD
:101140001340082B0ED1C0226B685202134080223C
:101150005202934206D12B689B03B6D56368002BDD
:10116000B3D1ACE76368012B13D180232A685B02FB
:1011700013432B60FFF70CFB80270600BF022B6890
:101180003B42A2D1FFF704FB801B6428F7D9032060
:1011900096E7002B15D12B688F4A802713402B60D0
:1011A0002B688E4ABF0213402B60FFF7F1FA06004E
:1011B0002B683B4289D0FFF7EBFA801B6428F7D9F4
:1011C000E5E7052B05D180232A68DB0213432B605A
:1011D000CBE72B68804A13402B602B687F4A134073
:1011E000C7E70C227B4D6B6813420BD06B68134032
:1011F000082B16D1C0226B685202134080221202C3
:1012000093420ED12B689B0703D5E368012B00D0D6
:1012100055E7F8212A6823698A43DB0013432B60D2
:1012200057E7E2680123002A0FD02A6802271343F8
:101230002B60FFF7ADFA06002B683B42E9D1FFF7C0
:10124000A7FA801B0228F7D9A1E72A6802279A4348
:101250002A60FFF79DFA06002B683B4200D138E771
:10126000FFF796FA801B0228F6D990E7E26901237E
:10127000584D002A10D06A6A022713436B62FFF7A9
:1012800087FA06006B6A3B4200D026E7FFF780FA38
:10129000801B0228F6D97AE76A6A02279A436A62B3
:1012A000FFF776FA06006B6A3B4200D115E7FFF7BD
:1012B0006FFA801B0228F6D969E780220021454D8C
:1012C0005205EB690091134208D1EB691343EB61BE
:1012D000EB6913400393039B012300938027404E47
:1012E0007F0033683B4215D0A368012B22D12A6AC4
:1012F00013432B62FFF74CFA022706002B6A3B428E
:101300003FD0009B012B00D0EBE6EB69354A134040
:10131000EB61E6E633683B433360FFF739FA01904F
:1013200033683B42E0D1FFF733FA019BC01A6428CF
:10133000F6D92CE70122002B14D12B6A0227934304
:101340002B622B6A033293432B62FFF721FA0600CC
:101350002B6A3B42D5D0FFF71BFA234B801B9842E8
:10136000F6D914E7052B05D1296A013B0B432B6203
:101370002B6ABDE72B6A934304222B622B6A9343AB
:10138000B7E7FFF705FA184B801B9842B6D9FEE67F
:10139000FFF7FEF9801B022800D8B5E6F7E6053214
:1013A00003D16A6B9A436A63B2E66A6B02271343FE
:1013B00001226B636B6B93436B63FFF7E9F90600E4
:1013C0006B6B3B4200D1AAE6FFF7E2F9801B0228D3
:1013D000F6D9DCE600100240FFFFFEFFFFFFFBFF37
:1013E00000700040FFFFFFEF881300000C22554DF6
:1013F0006B681340934209D06B681340082B0ED1E1
:10140000C0226B6852021340934208D16B6B9B035E
:1014100000D488E6236A012B00D050E683E6236AD5
:10142000002B13D080236A6B5B0213436B63FFF7BF
:10143000AFF980270600BF026B6B3B4200D072E61B
:10144000FFF7A6F9801B0228F6D9A0E66B6B3E4A8F
:10145000802713406B63FFF79BF90600BF026B6B9D
:101460003B4200D15FE6FFF793F9801B0228F6D9D3
:101470008DE60C21334D6A680A40082A47D0334A6A
:10148000022B32D12B68802713402B60FFF780F9A5
:101490000600BF042B683B4221D10F22EB6A802655
:1014A0009343226BB6041343EB62A16AE36A6A6852
:1014B0000B4327490A4013436B6080232A685B046F
:1014C00013432B60FFF764F904002B68334200D00C
:1014D0002DE6FFF75DF9001B0228F6D957E6FFF766
:1014E00057F9801B0228D5D951E62B688026134076
:1014F0002B60FFF74DF90400B6042B68334200D18E
:1015000015E6FFF745F9001B0228F6D93FE6012B47
:1015100000D1D4E5C0226868A16A5202EB6A024099
:101520008A4200D0CBE50F221340226B934200D0B9
:10153000C5E5F0239B031840E36AC01A431E984197
:10154000C0B2BDE500100240FFFFFEFFFFFFFFFE3F
:10155000FF7FC2FF0C2070B5134D6B681840082840
:1015600008D00C3843425841104B40421840104BB1
:10157000C01870BD0F200F499A0C02408C5CEA6ABB
:101580000D490240895CC022802052021340400273
:10159000834201D1064802E09342FBD10748FEF79F
:1015A000C7FD6043E5E7C04600100240005A6202F2
:1015B00000127A00BF2F0008AF2F0008006CDC0279
:1015C000F7B504000F00002801D10120FEBD012263
:1015D0003A4D2B6813408B421CD32268930722D4C8
:1015E000D2072FD401232A681A40BA4257D8236859
:1015F000334D5B075AD4FFF7ADFF6B68314A1B06CA
:101600001B0FD35C3049D84008600320FEF74AFF27
:101610000020DBE72B6893430B432B602B681340C0
:101620008B42D2D1D9E72649530704D5E023486835
:10163000DB0003434B60F0204B688343A068034307
:101640004B60CDE762681E4E012A03D133689B03CD
:1016500005D4BAE7022A1AD133689B01B5D5032114
:1016600073688B4313437360FFF792F801900C2368
:1016700072681A4063689B009A42B3D0FFF788F8FB
:10168000019BC01A114B9842F1D903209EE7032A0F
:1016900001D1736BDBE733689B07E0D495E72A68D9
:1016A0009A432A602A681A42A1D08EE76B68084ADA
:1016B0001340E26813436B609DE7C0460020024080
:1016C000001002409F2F0008000000208813000037
:1016D000FFF8FFFF044B054A5B6805495B055B0F9C
:1016E000CB5C1068D840704700100240000000201A
:1016F000972F0008072310B503240360094B5A688D
:10170000224042605A68ED3422408260E0225B68E9
:10171000D20013400122C360034B1B6813400B60CF
:1017200010BDC0460010024000200240F0B5036822
:10173000050085B0DB032BD580220021414C5205EA
:10174000E3690091134208D1E3691343E361E3695C
:1017500013400393039B0123009380273A4E7F009D
:1017600033683B4234D0216AC022080092006B6883
:10177000364E104011423DD1236A6A68334013430C
:101780002362009B012B03D1E369314A1340E361DB
:101790002B68DA0706D503202A490A6B8243A8681A
:1017A00002430A639A0606D5102026490A6B824333
:1017B000E86802430A639A0306D5802021490A6B30
:1017C0008243686902430A635B0533D400200FE05B
:1017D00033683B433360FEF7DBFF019033683B42E5
:1017E000C1D1FEF7D5FF019BC01A6428F6D90320AA
:1017F00005B0F0BD13408342BED08022236A206A28
:101800001900520202432262226A12483140024009
:1018100022622162DB07AFD5FEF7BAFF0700022282
:10182000236A1342A8D1FEF7B3FF0B4BC01B9842AB
:10183000F5D9DCE74021034A136B8B4329690B433D
:101840001363C3E70010024000700040FFFCFFFF7D
:10185000FFFFFFEFFFFFFEFF88130000704700004F
:1018600001000300012010B53D310C78E2B2844242
:1018700019D1001808701B68D9681143D9600B4949
:101880008B4206D08021C9058B4202D008498B4289
:101890000AD107219A680A40062A03D00122196852
:1018A0000A431A60002010BD1968F9E7002C0140B6
:1018B0000004004070477047704770470222036879
:1018C00070B5DD681E69040016420DD015420BD0BC
:1018D000053A1A61043202779B699B0700D171E0D7
:1018E000FFF7E9FF0023237704231E4211D01D4296
:1018F0000FD00522236852421A61073222779A6973
:10190000C0239B0020001A4262D0FFF7D4FF0023BF
:10191000237708231E420FD01D420DD009222368D1
:1019200052421A610D322277DB6920009B0755D0A5
:10193000FFF7C1FF0023237710231E4211D01D4261
:101940000FD01122236852421A6119322277DA69C4
:10195000C0239B0020001A4246D0FFF7ACFF0023B3
:10196000237701231E4208D01D4206D0022223689D
:10197000524220001A61FEF771FD80231E4208D0FA
:101980001D4206D081222368524220001A6100F0D5
:10199000A8F840231E4208D01D4206D041222368E9
:1019A000524220001A61FFF788FF20231E4208D010
:1019B0001D4206D021222368524220001A6100F005
:1019C0008FF870BDFFF776FF2000FFF775FF89E7FE
:1019D000FFF770FF2000FFF76FFF98E7FFF76AFF40
:1019E0002000FFF769FFA5E7FFF764FF2000FFF77E
:1019F00063FFB4E7204A10B50368904206D0802404
:101A0000E405A04202D01D4CA0420CD17024A34397
:101A10004C68234390420FD08024E405A0420BD0B1
:101A2000164CA04208D0164CA04205D0154CA0423E
:101A300002D0154CA04203D1144C1C40CB68234368
:101A40008024A3434C69234303608B68C3620B6803
:101A50008362904205D00B4B984202D00A4B9842C9
:101A600001D10B690363012242610369134202D071
:101A700003699343036110BD002C01400004004042
:101A8000002000400044014000480140FFFCFFFFEF
:101A900070B504000120002C21D025003D352B78A5
:101AA000DAB2002B05D123003C3320001A70FFF777
:101AB000D5FE02232B702068211DFFF79BFF22001B
:101AC00001230020463213704534083A13705370D6
:101AD0009370D37013715371937123702B7070BD19
:101AE0007047704730B5EFF31084012282F31088FD
:101AF0000168124D0B682B400B6084F31088EFF3E4
:101B0000108482F3108801688B6893438B6084F3A0
:101B10001088036E93420AD1EFF3108183F310888B
:101B2000102402681368A343136081F310882022F5
:101B3000031DDA6700230366836630BDDFFEFFFF07
:101B400070B504002569A168036829436569C26905
:101B5000294318683D4D11432840014319605968D5
:101B60003B48256A0140E06801435960A1699868D3
:101B70002943384D28400143996037498B4215D19C
:101B80000321364B1B6B0B40013B022B51D83449D0
:101B9000C85C80231B029A4227D1082847D8FEF749
:101BA000B3FA4C460E460B4646460F002D495B18CD
:101BB000591E8B411801ECE7FFF7CCFC3FE02A4AA5
:101BC0006168520048081018FEF7B2FA0200274B6D
:101BD000103A9A422BD80F23020000079A4393B27F
:101BE000400F22680343D3602BE008281FD8FEF77C
:101BF0008BFA131E051E181E1E1E1B001A48616854
:101C00004B081818FEF794FA0200184B103A9A4243
:101C10000DD82368D86014E0FFF75CFD002810D0D1
:101C2000EDE7FFF797FCF9E780200002E7E70120E6
:101C300008E080231B029A42EED1FFF74BFD021E03
:101C4000BED100200023A366E36670BDF369FFEFF9
:101C5000FFCFFFFFFFF4FFFF0038014000100240FC
:101C6000CF2F000800BCFFBF00127A00EFFF00007A
:101C7000436A30B51A0706D50168284C4A682240E5
:101C8000446B22434A60DA0706D50168244C4A684F
:101C90002240846A22434A609A0706D50168214C93
:101CA0004A682240C46A22434A605A0706D501683E
:101CB0001D4C4A682240046B22434A60DA0606D56E
:101CC00001681A4C8A682240846B22438A609A0613
:101CD00006D50168164C8A682240C46B22438A608C
:101CE0005A0610D50168134D4A68046C2A402243F5
:101CF0004A6080225203944205D14A680E4C224029
:101D0000446C22434A601B0606D502680B4953689F
:101D10000B40816C0B43536030BDC046FF7FFFFF1B
:101D2000FFFFFDFFFFFFFEFFFFFFFBFFFFEFFFFFDA
:101D3000FFDFFFFFFFFFEFFFFFFF9FFFFFFFF7FF4B
:101D4000F7B504000D00170000932268D3692B40FB
:101D50005B1B59424B41BB4201D0002025E0089B50
:101D60000133F3D0FEF714FD009BC01A089B984284
:101D70002CD8002B2AD023681A685207E5D52A00F0
:101D80004021403A8A43E0D0DA6908261100314008
:101D9000019132420AD020001E62FFF7A3FEA31970
:101DA000DE670023012078342370FEBD8022D969CC
:101DB00012011142C9D01A622000FFF793FE2300DE
:101DC00020220833DA67019B783423700320ECE784
:101DD000F0B587B00593C36F04000D001700022013
:101DE000202B38D10138002935D0002A33D0802368
:101DF000A2685B019A4204D12369002B01D1014200
:101E000029D1230000260833DE672123E367FEF78C
:101E1000BFFC230050331F80023303931F808023B5
:101E2000A26804905B019A4204D12369B34201D1B4
:101E30002E001D00230052331B889AB2002B0CD1B8
:101E4000059B402100932000049BFFF779FF20238E
:101E5000E36700280DD107B0F0BD059B0022009379
:101E600080212000049BFFF76BFF002803D0202374
:101E7000E3670320EFE72268002D0BD13388023699
:101E8000DB05DB0D1385039B039A1B88013B9BB28B
:101E90001380CFE72B7801351385F4E7030073B582
:101EA000002504000833DD67FEF772FC2368060096
:101EB0001B681B071DD58021264B2A000093890330
:101EC00003002000FFF73CFFA84212D0EFF310817F
:101ED000012383F3108880202268136883431360F2
:101EE00081F310882023E3670320002378342370D4
:101EF00076BD250008CD1B685B0723D58021154BD7
:101F00000022009320003300C903FFF719FF0028C7
:101F100018D0EFF31080012282F3108821680E4E52
:101F20000B6833400B6080F31088EFF3108082F36E
:101F3000108821688B6893438B6080F3108820237E
:101F4000EB67D1E720230020E367EB67206660663C
:101F5000CBE7C046FFFFFF01DFFEFFFF10B5041E09
:101F600001D1012010BDC36F002B04D102007832D3
:101F70001370FEF759FB242301212268E3671368DD
:101F80008B431360636A002B02D02000FFF770FEC2
:101F90002000FFF7D5FD0128E3D0236807495A68E0
:101FA00020000A402A215A609A688A439A600122D6
:101FB00019680A431A60FFF771FFD3E7FFB7FFFF05
:101FC000002310B504000360436083608181436691
:101FD000C281036143618361190008225C3000F013
:101FE0000FFA0B4B246263620A4BA3620A4BE36253
:101FF0000A4B23630A4B9C4205D00A4B9C4202D0F9
:10200000094B9C4203D12000583000F079FA10BDF2
:10201000292200085122000889220008B522000860
:10202000B0010020180200208002002010B5034AF1
:102030000349044800F06CF810BDC0460C000020B5
:10204000912D00081C00002041680B4B10B50400C6
:10205000994201D000F09CFEA168084B994202D041
:10206000200000F095FEE168054B994202D0200067
:1020700000F08EFE10BDC046B00100201802002006
:102080008002002010B5094B094A04211A60094852
:102090000022FFF795FF012209210748FFF790FF73
:1020A000022212210548FFF78BFF10BDE802002035
:1020B0002D200008B001002018020020800200201E
:1020C00010B5024800F01DFA10BDC046F102002014
:1020D00010B5024800F016FA10BDC046F10200200B
:1020E00010B50400FFF7ECFF236A002B02D0FFF7C6
:1020F000EFFF10BD044B2362044B1B68002BF6D18D
:10210000FFF7C0FFF3E7C04649200008E8020020BF
:10211000F7B51400002600900191A5686768013F9B
:1021200004D52468002CF8D13000FEBDAB89012B0A
:1021300008D90E22AB5E013304D029000098019B20
:10214000984706436835EAE70FB407B5054904AB7D
:10215000086804CB8168019300F0FAFA03B008BC68
:1021600004B0184718000020036A70B505000E007F
:102170008468002B01D1FFF7B3FF636EDB0705D442
:10218000A3899B0502D4A06D00F0BBF9A3891B07AE
:1021900002D52369002B1FD12100280000F0D2F8BE
:1021A000002819D001256D42636EDB0705D4A38991
:1021B0009B0502D4A06D00F0A5F9280070BD013682
:1021C000A360002B04DAA2699A4216DC0A2914D013
:1021D00023685A1C22601970A3683178013B0029DA
:1021E000EDD1A360002B0FDA220028000A3100F0A5
:1021F00067F80130D6D00A25D6E72200280000F083
:102200005FF80130E8D1CDE723685A1C22600A222A
:102210001A70F0E710B5034B01001868FFF7A4FF30
:1022200010BDC0461800002070B50C000E25495F97
:1022300000F014F9002803DB636D1B18636570BDA3
:10224000A389024A1340A381F9E7C046FFEFFFFFCD
:10225000F8B51F008B8905000C001600DB0505D5BD
:102260000E23C95E0022022300F0E4F8A389054A88
:1022700028001340A38132000E23E15E3B0000F0F2
:1022800001F9F8BDFFEFFFFF70B50C000E25495FA7
:1022900000F0D0F8A389421C03D1054A1340A38162
:1022A00070BD802252011343A3816065F8E7C046E8
:1022B000FFEFFFFF10B50E23C95E00F0A9F810BDB7
:1022C000F8B506000D001400002804D0036A002BA6
:1022D00001D1FFF705FFA369A360A3891B0702D5FE
:1022E0002369002B09D12100300000F02BF80028D1
:1022F00003D001256D422800F8BD23692068EFB2A4
:10230000C01A6369EDB2834205DC2100300000F0A1
:102310003FFD0028EDD1A3680130013BA360236895
:102320005A1C22601F706369834204D0A389DB07B3
:10233000E1D50A2DDFD12100300000F029FD002871
:10234000D9D0D6E72D4B70B5050018680C000028D1
:1023500004D0036A002B01D1FFF7C2FE0C23E25E1A
:10236000130723D4D30607D409232B60402301206D
:102370001343A38140423AE0520713D5616B002911
:1023800008D023004433994202D0280000F0BCF862
:10239000002363632422A3899343A3810023636002
:1023A000236923600823A2891343A3812369002B97
:1023B0000BD1A0218022A389890092000B40934277
:1023C00003D02100280000F039FD0C23E25E01213A
:1023D00013000B400A420BD00023A36063695B42E9
:1023E000A36100202369834201D11306BED470BDCE
:1023F000910700D46369A360F3E7C046180000208A
:1024000003008218934200D1704719700133F9E735
:10241000002370B5064D040008002B60FEF7BAF8E3
:10242000431C03D12B68002B00D0236070BDC04635
:10243000EC02002070B50400080011001A0000230F
:10244000054D2B60FEF7B0F8431C03D12B68002B21
:1024500000D0236070BDC046EC02002070B50400BF
:10246000080011001A000023054D2B60FEF778F8D4
:10247000431C03D12B68002B00D0236070BDC046E5
:10248000EC02002070B50400080011001A000023BF
:10249000054D2B60FEF771F8431C03D12B68002B10
:1024A00000D0236070BDC046EC020020014B1868CC
:1024B0007047C0461800002070B500260C4C0D4D2A
:1024C000641BA410A64209D1002600F03BFD0A4C73
:1024D0000A4D641BA410A64205D170BDB300EB5891
:1024E00098470136EEE7B300EB5898470136F2E71C
:1024F00008300008083000080C30000808300008D8
:10250000704770477047000070B505000C1E10D072
:10251000043C2368002B00DAE418280000F0E0F8FF
:102520001D4A1368002B05D163601460280000F079
:10253000DFF870BDA34208D9206821188B42F3D17F
:1025400019685B6809182160EEE71A005B68002BC8
:1025500001D0A342F9D911685018A0420BD12068CC
:102560000918501811608342E0D118685B6841185F
:1025700011605360DAE7A04202D90C232B60D5E743
:10258000206821188B4203D119685B680918216003
:1025900063605460CAE7C046F802002070B50F4E71
:1025A0000D0031680400002902D100F0ADFC30605C
:1025B0002900200000F0A8FC431C03D101256D4236
:1025C000280070BD0323C51C9D43A842F8D0291ADA
:1025D000200000F099FC0130F2D1EFE7F402002076
:1025E000F7B50322CB1C9343083305001F000C2BC7
:1025F00034D20C27B94233D8280000F071F8374E96
:1026000033681C00002C2FD139002800FFF7C6FFCB
:102610000400431C5FD134680094009B002B4AD116
:10262000002C52D023682800E3180099019300F091
:102630006BFC019B834248D123682800FF1A3900B4
:10264000FFF7ACFF013040D02368DB19236033680B
:102650005A68002A33D1009B336019E0002BC9DA95
:102660000C232B600020FEBD2168C91B20D40B2940
:102670000AD9E2192760A34204D13260636811606D
:10268000536005E05A60F9E76268A3420ED13260F8
:10269000280000F02DF8200007220B30231D904366
:1026A000C21A9842DFD01B1AA350DCE75A60EFE74A
:1026B00023006468A6E7009C63680093ADE71A00F6
:1026C0005B68A342FBD10023DAE70C2328002B60D0
:1026D00000F00EF8C6E70760DAE7C046F80200200F
:1026E00010B50248FFF70DFF10BDC046F0020020F4
:1026F00010B50248FFF706FF10BDC046F0020020EB
:10270000936810B5013B9360002B04DA9469A342EF
:1027100007DB0A2905D01368581C106019700800DF
:1027200010BDFFF7CDFD0100F9E7F8B506000F0079
:102730001400D518AC4201D1002007E021783A00FE
:102740003000FFF7DDFF0134431CF3D1F8BD00007A
:10275000F0B5A1B00F0015001E000390002804D0B2
:10276000036A002B01D1FFF7BBFC7B6EDB0705D4AE
:10277000BB899B0502D4B86DFFF7C3FEBB891B075D
:1027800002D53B69002B13D139000398FFF7DAFD1E
:1027900000280DD07B6EDB0703D50120404221B01D
:1027A000F0BDBB899B05F8D4B86DFFF7ABFEF4E72D
:1027B000002308AC6361203363761033A376079659
:1027C0002E003378002B01D0252B48D1731B0593A5
:1027D000AE420BD02A0039000398FFF7A6FF013064
:1027E00000D1AEE06369059A9B1863613378002BD2
:1027F00000D1A6E0012200235242626004A95432B3
:102800005218751C2360E360A3601370A365594BD5
:10281000052218002978059300F088FB6E1C00281B
:102820001FD12268D30604D5532304A95B182021A5
:102830001970130704D5532304A95B182B211970B1
:102840002B782A2B16D02E0000210A20E36832783C
:10285000751C303A092A50D9002911D117E00136E8
:10286000AFE7059B2268C01A01238340134335005C
:102870002360CCE7079B191D1B680791002B01DB28
:102880000B9304E05B42E36002231343236033783D
:102890002E2B0CD173782A2B34D1079B02361A1DAC
:1028A0001B680792002B01DA01235B420993324D2A
:1028B00003222800317800F039FB002806D040239D
:1028C000401B83402268013613432360317806227F
:1028D0002A48751C217600F029FB002840D0284B9F
:1028E000002B22D10722079B07339343083307931A
:1028F0006369049A9B18636162E743432E000121D8
:102900009B18A4E700230A2019000136636032787F
:10291000751C303A092A03D9002BC8D00991C6E7A3
:1029200041432E0001238918F1E707AA00922100F4
:102930003A00144B039800E000BF0490049B01335D
:10294000D6D17B6EDB0705D4BB899B0502D4B86D5D
:10295000FFF7D8FDBB895B0600D51EE70D981EE783
:1029600007AA009221003A00064B039800F07CF879
:10297000E3E7C046D22F0008D82F0008DC2F00085C
:10298000000000002B270008F7B5160001938A68A5
:102990000B690C000090934200DA130022003360B0
:1029A00043321278002A01D00133336023689B063A
:1029B00002D53368023333602268062315001D40B8
:1029C0001A4227D0230043331B785A1E93412268B2
:1029D000920630D4220001990098089D4332A847FE
:1029E000013025D00622236800251340042B05D191
:1029F0003368E568ED1AEB43DB171D40A3682269D5
:102A0000934201DD9B1AED180026B54220D100202B
:102A100010E00135E36832689B1AAB42D2DD220038
:102A2000012301990098089F1932B8470130F0D16D
:102A300001204042FEBD3020E118433108702100E2
:102A40005A1C45310978A218433202331170C1E78C
:102A50002200012301990098089F1A32B8470130DB
:102A6000E6D00136D1E70000F0B58BB006920A003F
:102A700043320793059003920A7E0C00109B782A3C
:102A800009D8622A0BD8002A00D1BCE07B49049106
:102A9000582A00D190E0250042352A7022E010002B
:102AA00063381528F7D8FDF739FB16001F00F6FF2D
:102AB000F6FFF6FFF6FF1F00F6FFF6FFF6FFF6FF44
:102AC000A10036008000F6FFF6FFB200F6FF3600E8
:102AD000F6FFF6FF840025001A684235111D1960C3
:102AE00013682B700123A0E018680968021D0D0609
:102AF0000BD506681A60002E03DA2D23039A76425E
:102B000013705E4B0A27049318E006681A604906A2
:102B1000F1D536B2EFE70868196840C9050602D456
:102B2000400600D5B6B21960544B0A2704936F2AA9
:102B300000D1023F2300002243331A706368A36070
:102B4000002B03DB042122688A432260002E02D17D
:102B5000039D002B0CD0039D30003900FDF76EFB68
:102B6000049B013D5B5C2B70330006009F42F3D950
:102B7000082F09D12368DB0706D5626823699A42CA
:102B800002DC3023013D2B70039B5B1B2361079B01
:102B9000210000930598069B09AAFFF7F5FE013076
:102BA00048D1012040420BB0F0BD202209680A4301
:102BB0002260782232490491210045310A70196857
:102BC000226840C9100602D4500600D5B6B219607A
:102BD000D30702D5202313432360002E01D01027F2
:102BE000A8E72022236893432360F8E71A680D685A
:102BF000101D4969186013682E0601D5196002E09E
:102C00006D06FBD519800023039D2361BFE71A6879
:102C1000111D1960156800212800626800F086F90E
:102C2000002801D0401B6060636823610023039A81
:102C30001370ACE72A00236906990598079DA847F9
:102C40000130AED023689B0715D4099BE0689842F9
:102C5000A9DA1800A7E72200012306990598079E24
:102C60001932B04701309CD00135E368099A9B1AAC
:102C7000AB42F0DCE9E70025F7E7C046E32F0008A8
:102C8000F42F0008F7B50C228B5E05000C001A0724
:102C900056D44A68002A02DC0A6C002A4EDDE76A34
:102CA000002F4BD0002280202E682A601A0040019D
:102CB000216A0240034233D0626DA3895B0706D5C7
:102CC0006368D21A636B002B01D0236CD21A0023E5
:102CD0002800E76A216AB847A289431C06D12968FF
:102CE0001D2946D8294B0B41DB0742D400236360E2
:102CF00023692360D20405D5431C02D12B68002B25
:102D000000D16065616B2E60002917D02300443329
:102D1000994202D02800FFF7F7FB002363630DE020
:102D200001232800B8470200431CC6D12B68002BA2
:102D3000C3D01D2B01D0162B1AD12E6000201EE00F
:102D40000E69002EFAD00F680E60BA1B01920022A5
:102D50009B0700D14A69A260019B002BEEDDA36AAC
:102D600032001F002800019B216AB847002807DCB9
:102D7000A2894023012013431BB2A3814042FEBD20
:102D8000019B36181B1A0193E6E7C046FEFFBFDF22
:102D90000B6970B505000C00002B02D1002528003E
:102DA00070BD002804D0036A002B01D1FFF798F909
:102DB0000C22A35E002BF1D0626ED20704D49B05D7
:102DC00002D4A06DFFF79DFB28002100FFF75AFFFA
:102DD000636E0500DB07E2D4A3899B05DFD4A06DF9
:102DE000FFF790FBDBE7000070B50E001D000E231F
:102DF000C95E140096B000290CDAB2898023110054
:102E000019401A4214D18023DB000020296023607E
:102E100016B070BD6A4600F053F80028EDDBF023D1
:102E200001991B021940044BC9184B425941EAE76A
:102E300000214023E9E7C04600E0FFFFF0B502268D
:102E40008B8905000C0085B0334207D0230047333F
:102E5000236023610123636105B0F0BD03AB02AAC7
:102E6000FFF7C2FF029F019039002800FFF7B8FB6F
:102E7000002808D10C22A35E9A05EDD403229343C7
:102E80001E43A681E2E78023A28920601343A38129
:102E9000039B20616761002B0CD028000E23E15EAC
:102EA00000F020F8002805D00323A2899A43023BB2
:102EB0001343A381A389019A1343A381CCE70000A4
:102EC000002370B5064D0400080011002B60FDF7CB
:102ED00064FB431C03D12B68002B00D0236070BD22
:102EE000EC020020002370B5064D040008002B60A2
:102EF000FDF758FB431C03D12B68002B00D0236047
:102F000070BDC046EC020020002370B5064D0400E1
:102F100008002B60FDF74AFB431C03D12B68002BF4
:102F200000D0236070BDC046EC020020C9B28218F8
:102F3000904201D10020704703788B42FBD00130D2
:102F4000F6E70000F8B5C046F8BC08BC9E467047DE
:0C2F5000F8B5C046F8BC08BC9E467047AF
:102F5C0074686973206973207072696E746620746A
:102F6C006573740073746172742077726974696E1E
:102F7C006700656E642077726974650064617461C2
:102F8C003A307825303278200D0A0000000000011C
:102F9C00020304000000000000000001020304060C
:102FAC000708090102030405060708090A0B0C0DA2
:102FBC000E0F1002030405060708090A0B0C0D0E70
:102FCC000F1010040802232D302B2000686C4C00CD
:102FDC00656667454647003031323334353637380D
:102FEC00394142434445460030313233343536376B
:0C2FFC0038396162636465660000000003
:04300800E9000008D3
:04300C00C1000008F7
:1030100000127A000100000004000000000000001F
:1030200003000000B00100201C0000200000000090
:10303000B0010020180200208002002000000000E3
:103040000000000000000000000000000000000080
:103050000000000000000000000000000000000070
:103060000000000000000000000000000000000060
:08307000000000000000000058
:040000050800068D5C
:00000001FF
